{
	"contracts/10_ether_unit.sol": {
		"Unit": {
			"abi": [
				{
					"inputs": [],
					"name": "balanceEther",
					"outputs": [
						{
							"internalType": "uint256",
							"name": "",
							"type": "uint256"
						}
					],
					"stateMutability": "view",
					"type": "function"
				},
				{
					"inputs": [],
					"name": "balanceGwei",
					"outputs": [
						{
							"internalType": "uint256",
							"name": "",
							"type": "uint256"
						}
					],
					"stateMutability": "view",
					"type": "function"
				},
				{
					"inputs": [],
					"name": "getContractBalance",
					"outputs": [
						{
							"internalType": "uint256",
							"name": "",
							"type": "uint256"
						}
					],
					"stateMutability": "view",
					"type": "function"
				},
				{
					"inputs": [],
					"name": "payEther",
					"outputs": [],
					"stateMutability": "payable",
					"type": "function"
				}
			],
			"devdoc": {
				"kind": "dev",
				"methods": {},
				"version": 1
			},
			"evm": {
				"assembly": "    /* \"contracts/10_ether_unit.sol\":61:560  contract Unit{... */\n  mstore(0x40, 0x80)\n  callvalue\n  dup1\n  iszero\n  tag_1\n  jumpi\n  0x00\n  dup1\n  revert\ntag_1:\n  pop\n  dataSize(sub_0)\n  dup1\n  dataOffset(sub_0)\n  0x00\n  codecopy\n  0x00\n  return\nstop\n\nsub_0: assembly {\n        /* \"contracts/10_ether_unit.sol\":61:560  contract Unit{... */\n      mstore(0x40, 0x80)\n      jumpi(tag_1, lt(calldatasize, 0x04))\n      shr(0xe0, calldataload(0x00))\n      dup1\n      0x323bde92\n      eq\n      tag_2\n      jumpi\n      dup1\n      0x6f9fb98a\n      eq\n      tag_3\n      jumpi\n      dup1\n      0xaebc0665\n      eq\n      tag_4\n      jumpi\n      dup1\n      0xf7474d00\n      eq\n      tag_5\n      jumpi\n    tag_1:\n      0x00\n      dup1\n      revert\n        /* \"contracts/10_ether_unit.sol\":454:557  function balanceEther() public view returns(uint){... */\n    tag_2:\n      callvalue\n      dup1\n      iszero\n      tag_6\n      jumpi\n      0x00\n      dup1\n      revert\n    tag_6:\n      pop\n      tag_7\n      tag_8\n      jump\t// in\n    tag_7:\n      mload(0x40)\n      tag_9\n      swap2\n      swap1\n      tag_10\n      jump\t// in\n    tag_9:\n      mload(0x40)\n      dup1\n      swap2\n      sub\n      swap1\n      return\n        /* \"contracts/10_ether_unit.sol\":216:339  function getContractBalance() public view returns(uint){... */\n    tag_3:\n      callvalue\n      dup1\n      iszero\n      tag_11\n      jumpi\n      0x00\n      dup1\n      revert\n    tag_11:\n      pop\n      tag_12\n      tag_13\n      jump\t// in\n    tag_12:\n      mload(0x40)\n      tag_14\n      swap2\n      swap1\n      tag_10\n      jump\t// in\n    tag_14:\n      mload(0x40)\n      dup1\n      swap2\n      sub\n      swap1\n      return\n        /* \"contracts/10_ether_unit.sol\":345:448  function balanceGwei() public view returns(uint){... */\n    tag_4:\n      callvalue\n      dup1\n      iszero\n      tag_15\n      jumpi\n      0x00\n      dup1\n      revert\n    tag_15:\n      pop\n      tag_16\n      tag_17\n      jump\t// in\n    tag_16:\n      mload(0x40)\n      tag_18\n      swap2\n      swap1\n      tag_10\n      jump\t// in\n    tag_18:\n      mload(0x40)\n      dup1\n      swap2\n      sub\n      swap1\n      return\n        /* \"contracts/10_ether_unit.sol\":83:210  function payEther() public payable{... */\n    tag_5:\n      tag_19\n      tag_20\n      jump\t// in\n    tag_19:\n      stop\n        /* \"contracts/10_ether_unit.sol\":454:557  function balanceEther() public view returns(uint){... */\n    tag_8:\n        /* \"contracts/10_ether_unit.sol\":498:502  uint */\n      0x00\n        /* \"contracts/10_ether_unit.sol\":545:549  1e18 */\n      0x0de0b6b3a7640000\n        /* \"contracts/10_ether_unit.sol\":521:542  address(this).balance */\n      selfbalance\n        /* \"contracts/10_ether_unit.sol\":521:549  address(this).balance / 1e18 */\n      tag_22\n      swap2\n      swap1\n      tag_23\n      jump\t// in\n    tag_22:\n        /* \"contracts/10_ether_unit.sol\":514:549  return address(this).balance / 1e18 */\n      swap1\n      pop\n        /* \"contracts/10_ether_unit.sol\":454:557  function balanceEther() public view returns(uint){... */\n      swap1\n      jump\t// out\n        /* \"contracts/10_ether_unit.sol\":216:339  function getContractBalance() public view returns(uint){... */\n    tag_13:\n        /* \"contracts/10_ether_unit.sol\":266:270  uint */\n      0x00\n        /* \"contracts/10_ether_unit.sol\":289:310  address(this).balance */\n      selfbalance\n        /* \"contracts/10_ether_unit.sol\":282:310  return address(this).balance */\n      swap1\n      pop\n        /* \"contracts/10_ether_unit.sol\":216:339  function getContractBalance() public view returns(uint){... */\n      swap1\n      jump\t// out\n        /* \"contracts/10_ether_unit.sol\":345:448  function balanceGwei() public view returns(uint){... */\n    tag_17:\n        /* \"contracts/10_ether_unit.sol\":388:392  uint */\n      0x00\n        /* \"contracts/10_ether_unit.sol\":436:439  1e9 */\n      0x3b9aca00\n        /* \"contracts/10_ether_unit.sol\":411:432  address(this).balance */\n      selfbalance\n        /* \"contracts/10_ether_unit.sol\":411:439  address(this).balance /  1e9 */\n      tag_26\n      swap2\n      swap1\n      tag_23\n      jump\t// in\n    tag_26:\n        /* \"contracts/10_ether_unit.sol\":404:439  return address(this).balance /  1e9 */\n      swap1\n      pop\n        /* \"contracts/10_ether_unit.sol\":345:448  function balanceGwei() public view returns(uint){... */\n      swap1\n      jump\t// out\n        /* \"contracts/10_ether_unit.sol\":83:210  function payEther() public payable{... */\n    tag_20:\n      jump\t// out\n        /* \"#utility.yul\":7:84   */\n    tag_28:\n        /* \"#utility.yul\":44:51   */\n      0x00\n        /* \"#utility.yul\":73:78   */\n      dup2\n        /* \"#utility.yul\":62:78   */\n      swap1\n      pop\n        /* \"#utility.yul\":7:84   */\n      swap2\n      swap1\n      pop\n      jump\t// out\n        /* \"#utility.yul\":90:208   */\n    tag_29:\n        /* \"#utility.yul\":177:201   */\n      tag_35\n        /* \"#utility.yul\":195:200   */\n      dup2\n        /* \"#utility.yul\":177:201   */\n      tag_28\n      jump\t// in\n    tag_35:\n        /* \"#utility.yul\":172:175   */\n      dup3\n        /* \"#utility.yul\":165:202   */\n      mstore\n        /* \"#utility.yul\":90:208   */\n      pop\n      pop\n      jump\t// out\n        /* \"#utility.yul\":214:436   */\n    tag_10:\n        /* \"#utility.yul\":307:311   */\n      0x00\n        /* \"#utility.yul\":345:347   */\n      0x20\n        /* \"#utility.yul\":334:343   */\n      dup3\n        /* \"#utility.yul\":330:348   */\n      add\n        /* \"#utility.yul\":322:348   */\n      swap1\n      pop\n        /* \"#utility.yul\":358:429   */\n      tag_37\n        /* \"#utility.yul\":426:427   */\n      0x00\n        /* \"#utility.yul\":415:424   */\n      dup4\n        /* \"#utility.yul\":411:428   */\n      add\n        /* \"#utility.yul\":402:408   */\n      dup5\n        /* \"#utility.yul\":358:429   */\n      tag_29\n      jump\t// in\n    tag_37:\n        /* \"#utility.yul\":214:436   */\n      swap3\n      swap2\n      pop\n      pop\n      jump\t// out\n        /* \"#utility.yul\":442:622   */\n    tag_30:\n        /* \"#utility.yul\":490:567   */\n      0x4e487b7100000000000000000000000000000000000000000000000000000000\n        /* \"#utility.yul\":487:488   */\n      0x00\n        /* \"#utility.yul\":480:568   */\n      mstore\n        /* \"#utility.yul\":587:591   */\n      0x12\n        /* \"#utility.yul\":584:585   */\n      0x04\n        /* \"#utility.yul\":577:592   */\n      mstore\n        /* \"#utility.yul\":611:615   */\n      0x24\n        /* \"#utility.yul\":608:609   */\n      0x00\n        /* \"#utility.yul\":601:616   */\n      revert\n        /* \"#utility.yul\":814:999   */\n    tag_23:\n        /* \"#utility.yul\":854:855   */\n      0x00\n        /* \"#utility.yul\":871:891   */\n      tag_41\n        /* \"#utility.yul\":889:890   */\n      dup3\n        /* \"#utility.yul\":871:891   */\n      tag_28\n      jump\t// in\n    tag_41:\n        /* \"#utility.yul\":866:891   */\n      swap2\n      pop\n        /* \"#utility.yul\":905:925   */\n      tag_42\n        /* \"#utility.yul\":923:924   */\n      dup4\n        /* \"#utility.yul\":905:925   */\n      tag_28\n      jump\t// in\n    tag_42:\n        /* \"#utility.yul\":900:925   */\n      swap3\n      pop\n        /* \"#utility.yul\":944:945   */\n      dup3\n        /* \"#utility.yul\":934:969   */\n      tag_43\n      jumpi\n        /* \"#utility.yul\":949:967   */\n      tag_44\n      tag_30\n      jump\t// in\n    tag_44:\n        /* \"#utility.yul\":934:969   */\n    tag_43:\n        /* \"#utility.yul\":991:992   */\n      dup3\n        /* \"#utility.yul\":988:989   */\n      dup3\n        /* \"#utility.yul\":984:993   */\n      div\n        /* \"#utility.yul\":979:993   */\n      swap1\n      pop\n        /* \"#utility.yul\":814:999   */\n      swap3\n      swap2\n      pop\n      pop\n      jump\t// out\n\n    auxdata: 0xa26469706673582212209669bd37f4f4a4ba4098bd758a9b7d7e947f9946f604d4bdfb4f3a8819595b8a64736f6c63430008190033\n}\n",
				"bytecode": {
					"linkReferences": {},
					"object": "6080604052348015600e575f80fd5b506101c78061001c5f395ff3fe60806040526004361061003e575f3560e01c8063323bde92146100425780636f9fb98a1461006c578063aebc066514610096578063f7474d00146100c0575b5f80fd5b34801561004d575f80fd5b506100566100ca565b604051610063919061011b565b60405180910390f35b348015610077575f80fd5b506100806100e4565b60405161008d919061011b565b60405180910390f35b3480156100a1575f80fd5b506100aa6100eb565b6040516100b7919061011b565b60405180910390f35b6100c8610101565b005b5f670de0b6b3a7640000476100df9190610161565b905090565b5f47905090565b5f633b9aca00476100fc9190610161565b905090565b565b5f819050919050565b61011581610103565b82525050565b5f60208201905061012e5f83018461010c565b92915050565b7f4e487b71000000000000000000000000000000000000000000000000000000005f52601260045260245ffd5b5f61016b82610103565b915061017683610103565b92508261018657610185610134565b5b82820490509291505056fea26469706673582212209669bd37f4f4a4ba4098bd758a9b7d7e947f9946f604d4bdfb4f3a8819595b8a64736f6c63430008190033",
					"opcodes": "PUSH1 0x80 PUSH1 0x40 MSTORE CALLVALUE DUP1 ISZERO PUSH1 0xE JUMPI PUSH0 DUP1 REVERT JUMPDEST POP PUSH2 0x1C7 DUP1 PUSH2 0x1C PUSH0 CODECOPY PUSH0 RETURN INVALID PUSH1 0x80 PUSH1 0x40 MSTORE PUSH1 0x4 CALLDATASIZE LT PUSH2 0x3E JUMPI PUSH0 CALLDATALOAD PUSH1 0xE0 SHR DUP1 PUSH4 0x323BDE92 EQ PUSH2 0x42 JUMPI DUP1 PUSH4 0x6F9FB98A EQ PUSH2 0x6C JUMPI DUP1 PUSH4 0xAEBC0665 EQ PUSH2 0x96 JUMPI DUP1 PUSH4 0xF7474D00 EQ PUSH2 0xC0 JUMPI JUMPDEST PUSH0 DUP1 REVERT JUMPDEST CALLVALUE DUP1 ISZERO PUSH2 0x4D JUMPI PUSH0 DUP1 REVERT JUMPDEST POP PUSH2 0x56 PUSH2 0xCA JUMP JUMPDEST PUSH1 0x40 MLOAD PUSH2 0x63 SWAP2 SWAP1 PUSH2 0x11B JUMP JUMPDEST PUSH1 0x40 MLOAD DUP1 SWAP2 SUB SWAP1 RETURN JUMPDEST CALLVALUE DUP1 ISZERO PUSH2 0x77 JUMPI PUSH0 DUP1 REVERT JUMPDEST POP PUSH2 0x80 PUSH2 0xE4 JUMP JUMPDEST PUSH1 0x40 MLOAD PUSH2 0x8D SWAP2 SWAP1 PUSH2 0x11B JUMP JUMPDEST PUSH1 0x40 MLOAD DUP1 SWAP2 SUB SWAP1 RETURN JUMPDEST CALLVALUE DUP1 ISZERO PUSH2 0xA1 JUMPI PUSH0 DUP1 REVERT JUMPDEST POP PUSH2 0xAA PUSH2 0xEB JUMP JUMPDEST PUSH1 0x40 MLOAD PUSH2 0xB7 SWAP2 SWAP1 PUSH2 0x11B JUMP JUMPDEST PUSH1 0x40 MLOAD DUP1 SWAP2 SUB SWAP1 RETURN JUMPDEST PUSH2 0xC8 PUSH2 0x101 JUMP JUMPDEST STOP JUMPDEST PUSH0 PUSH8 0xDE0B6B3A7640000 SELFBALANCE PUSH2 0xDF SWAP2 SWAP1 PUSH2 0x161 JUMP JUMPDEST SWAP1 POP SWAP1 JUMP JUMPDEST PUSH0 SELFBALANCE SWAP1 POP SWAP1 JUMP JUMPDEST PUSH0 PUSH4 0x3B9ACA00 SELFBALANCE PUSH2 0xFC SWAP2 SWAP1 PUSH2 0x161 JUMP JUMPDEST SWAP1 POP SWAP1 JUMP JUMPDEST JUMP JUMPDEST PUSH0 DUP2 SWAP1 POP SWAP2 SWAP1 POP JUMP JUMPDEST PUSH2 0x115 DUP2 PUSH2 0x103 JUMP JUMPDEST DUP3 MSTORE POP POP JUMP JUMPDEST PUSH0 PUSH1 0x20 DUP3 ADD SWAP1 POP PUSH2 0x12E PUSH0 DUP4 ADD DUP5 PUSH2 0x10C JUMP JUMPDEST SWAP3 SWAP2 POP POP JUMP JUMPDEST PUSH32 0x4E487B7100000000000000000000000000000000000000000000000000000000 PUSH0 MSTORE PUSH1 0x12 PUSH1 0x4 MSTORE PUSH1 0x24 PUSH0 REVERT JUMPDEST PUSH0 PUSH2 0x16B DUP3 PUSH2 0x103 JUMP JUMPDEST SWAP2 POP PUSH2 0x176 DUP4 PUSH2 0x103 JUMP JUMPDEST SWAP3 POP DUP3 PUSH2 0x186 JUMPI PUSH2 0x185 PUSH2 0x134 JUMP JUMPDEST JUMPDEST DUP3 DUP3 DIV SWAP1 POP SWAP3 SWAP2 POP POP JUMP INVALID LOG2 PUSH5 0x6970667358 0x22 SLT KECCAK256 SWAP7 PUSH10 0xBD37F4F4A4BA4098BD75 DUP11 SWAP12 PUSH30 0x7E947F9946F604D4BDFB4F3A8819595B8A64736F6C634300081900330000 "
				},
				"gasEstimates": {
					"creation": {
						"codeDepositCost": "91000",
						"executionCost": "139",
						"totalCost": "91139"
					},
					"external": {
						"balanceEther()": "infinite",
						"balanceGwei()": "infinite",
						"getContractBalance()": "334",
						"payEther()": "163"
					}
				},
				"methodIdentifiers": {
					"balanceEther()": "323bde92",
					"balanceGwei()": "aebc0665",
					"getContractBalance()": "6f9fb98a",
					"payEther()": "f7474d00"
				}
			},
			"storageLayout": {
				"storage": [],
				"types": null
			},
			"userdoc": {
				"kind": "user",
				"methods": {},
				"version": 1
			}
		}
	}
}