{
	"contracts/7_overflow_problem.sol": {
		"Overflow": {
			"abi": [
				{
					"inputs": [],
					"name": "money",
					"outputs": [
						{
							"internalType": "uint8",
							"name": "",
							"type": "uint8"
						}
					],
					"stateMutability": "view",
					"type": "function"
				},
				{
					"inputs": [],
					"name": "setter",
					"outputs": [],
					"stateMutability": "nonpayable",
					"type": "function"
				}
			],
			"devdoc": {
				"kind": "dev",
				"methods": {},
				"version": 1
			},
			"evm": {
				"assembly": "    /* \"contracts/7_overflow_problem.sol\":59:170  contract Overflow{\r... */\n  mstore(0x40, 0x80)\n    /* \"contracts/7_overflow_problem.sol\":104:107  255 */\n  0xff\n    /* \"contracts/7_overflow_problem.sol\":83:107  uint8 public money = 255 */\n  0x00\n  dup1\n  0x0100\n  exp\n  dup2\n  sload\n  dup2\n  0xff\n  mul\n  not\n  and\n  swap1\n  dup4\n  0xff\n  and\n  mul\n  or\n  swap1\n  sstore\n  pop\n    /* \"contracts/7_overflow_problem.sol\":59:170  contract Overflow{\r... */\n  callvalue\n  dup1\n  iszero\n  tag_1\n  jumpi\n  0x00\n  dup1\n  revert\ntag_1:\n  pop\n  dataSize(sub_0)\n  dup1\n  dataOffset(sub_0)\n  0x00\n  codecopy\n  0x00\n  return\nstop\n\nsub_0: assembly {\n        /* \"contracts/7_overflow_problem.sol\":59:170  contract Overflow{\r... */\n      mstore(0x40, 0x80)\n      callvalue\n      dup1\n      iszero\n      tag_1\n      jumpi\n      0x00\n      dup1\n      revert\n    tag_1:\n      pop\n      jumpi(tag_2, lt(calldatasize, 0x04))\n      shr(0xe0, calldataload(0x00))\n      dup1\n      0x3f3108f7\n      eq\n      tag_3\n      jumpi\n      dup1\n      0x4ddd108a\n      eq\n      tag_4\n      jumpi\n    tag_2:\n      0x00\n      dup1\n      revert\n        /* \"contracts/7_overflow_problem.sol\":116:167  function setter()public {\r... */\n    tag_3:\n      tag_5\n      tag_6\n      jump\t// in\n    tag_5:\n      stop\n        /* \"contracts/7_overflow_problem.sol\":83:107  uint8 public money = 255 */\n    tag_4:\n      tag_7\n      tag_8\n      jump\t// in\n    tag_7:\n      mload(0x40)\n      tag_9\n      swap2\n      swap1\n      tag_10\n      jump\t// in\n    tag_9:\n      mload(0x40)\n      dup1\n      swap2\n      sub\n      swap1\n      return\n        /* \"contracts/7_overflow_problem.sol\":116:167  function setter()public {\r... */\n    tag_6:\n        /* \"contracts/7_overflow_problem.sol\":151:156  money */\n      0x00\n      dup1\n        /* \"contracts/7_overflow_problem.sol\":151:159  money ++ */\n      dup2\n      dup2\n      swap1\n      sload\n      swap1\n      0x0100\n      exp\n      swap1\n      div\n      0xff\n      and\n      dup1\n      swap3\n      swap2\n      swap1\n      tag_12\n      swap1\n      tag_13\n      jump\t// in\n    tag_12:\n      swap2\n      swap1\n      0x0100\n      exp\n      dup2\n      sload\n      dup2\n      0xff\n      mul\n      not\n      and\n      swap1\n      dup4\n      0xff\n      and\n      mul\n      or\n      swap1\n      sstore\n      pop\n      pop\n        /* \"contracts/7_overflow_problem.sol\":116:167  function setter()public {\r... */\n      jump\t// out\n        /* \"contracts/7_overflow_problem.sol\":83:107  uint8 public money = 255 */\n    tag_8:\n      0x00\n      dup1\n      sload\n      swap1\n      0x0100\n      exp\n      swap1\n      div\n      0xff\n      and\n      dup2\n      jump\t// out\n        /* \"#utility.yul\":7:119   */\n    tag_15:\n        /* \"#utility.yul\":90:112   */\n      tag_17\n        /* \"#utility.yul\":106:111   */\n      dup2\n        /* \"#utility.yul\":90:112   */\n      tag_18\n      jump\t// in\n    tag_17:\n        /* \"#utility.yul\":85:88   */\n      dup3\n        /* \"#utility.yul\":78:113   */\n      mstore\n        /* \"#utility.yul\":68:119   */\n      pop\n      pop\n      jump\t// out\n        /* \"#utility.yul\":125:339   */\n    tag_10:\n      0x00\n        /* \"#utility.yul\":252:254   */\n      0x20\n        /* \"#utility.yul\":241:250   */\n      dup3\n        /* \"#utility.yul\":237:255   */\n      add\n        /* \"#utility.yul\":229:255   */\n      swap1\n      pop\n        /* \"#utility.yul\":265:332   */\n      tag_20\n        /* \"#utility.yul\":329:330   */\n      0x00\n        /* \"#utility.yul\":318:327   */\n      dup4\n        /* \"#utility.yul\":314:331   */\n      add\n        /* \"#utility.yul\":305:311   */\n      dup5\n        /* \"#utility.yul\":265:332   */\n      tag_15\n      jump\t// in\n    tag_20:\n        /* \"#utility.yul\":219:339   */\n      swap3\n      swap2\n      pop\n      pop\n      jump\t// out\n        /* \"#utility.yul\":345:431   */\n    tag_18:\n      0x00\n        /* \"#utility.yul\":420:424   */\n      0xff\n        /* \"#utility.yul\":413:418   */\n      dup3\n        /* \"#utility.yul\":409:425   */\n      and\n        /* \"#utility.yul\":398:425   */\n      swap1\n      pop\n        /* \"#utility.yul\":388:431   */\n      swap2\n      swap1\n      pop\n      jump\t// out\n        /* \"#utility.yul\":437:604   */\n    tag_13:\n      0x00\n        /* \"#utility.yul\":497:519   */\n      tag_23\n        /* \"#utility.yul\":513:518   */\n      dup3\n        /* \"#utility.yul\":497:519   */\n      tag_18\n      jump\t// in\n    tag_23:\n        /* \"#utility.yul\":488:519   */\n      swap2\n      pop\n        /* \"#utility.yul\":541:545   */\n      0xff\n        /* \"#utility.yul\":534:539   */\n      dup3\n        /* \"#utility.yul\":531:546   */\n      eq\n        /* \"#utility.yul\":528:530   */\n      iszero\n      tag_24\n      jumpi\n        /* \"#utility.yul\":549:567   */\n      tag_25\n      tag_26\n      jump\t// in\n    tag_25:\n        /* \"#utility.yul\":528:530   */\n    tag_24:\n        /* \"#utility.yul\":596:597   */\n      0x01\n        /* \"#utility.yul\":589:594   */\n      dup3\n        /* \"#utility.yul\":585:598   */\n      add\n        /* \"#utility.yul\":578:598   */\n      swap1\n      pop\n        /* \"#utility.yul\":478:604   */\n      swap2\n      swap1\n      pop\n      jump\t// out\n        /* \"#utility.yul\":610:790   */\n    tag_26:\n        /* \"#utility.yul\":658:735   */\n      0x4e487b7100000000000000000000000000000000000000000000000000000000\n        /* \"#utility.yul\":655:656   */\n      0x00\n        /* \"#utility.yul\":648:736   */\n      mstore\n        /* \"#utility.yul\":755:759   */\n      0x11\n        /* \"#utility.yul\":752:753   */\n      0x04\n        /* \"#utility.yul\":745:760   */\n      mstore\n        /* \"#utility.yul\":779:783   */\n      0x24\n        /* \"#utility.yul\":776:777   */\n      0x00\n        /* \"#utility.yul\":769:784   */\n      revert\n\n    auxdata: 0xa26469706673582212205397cae64392720702468669e1b0cbf6ee8975cdf2e2f5167c5830685db16e5264736f6c63430008000033\n}\n",
				"bytecode": {
					"linkReferences": {},
					"object": "608060405260ff6000806101000a81548160ff021916908360ff16021790555034801561002b57600080fd5b506101738061003b6000396000f3fe608060405234801561001057600080fd5b50600436106100365760003560e01c80633f3108f71461003b5780634ddd108a14610045575b600080fd5b610043610063565b005b61004d61009c565b60405161005a91906100bc565b60405180910390f35b60008081819054906101000a900460ff1680929190610081906100e4565b91906101000a81548160ff021916908360ff16021790555050565b60008054906101000a900460ff1681565b6100b6816100d7565b82525050565b60006020820190506100d160008301846100ad565b92915050565b600060ff82169050919050565b60006100ef826100d7565b915060ff8214156101035761010261010e565b5b600182019050919050565b7f4e487b7100000000000000000000000000000000000000000000000000000000600052601160045260246000fdfea26469706673582212205397cae64392720702468669e1b0cbf6ee8975cdf2e2f5167c5830685db16e5264736f6c63430008000033",
					"opcodes": "PUSH1 0x80 PUSH1 0x40 MSTORE PUSH1 0xFF PUSH1 0x0 DUP1 PUSH2 0x100 EXP DUP2 SLOAD DUP2 PUSH1 0xFF MUL NOT AND SWAP1 DUP4 PUSH1 0xFF AND MUL OR SWAP1 SSTORE POP CALLVALUE DUP1 ISZERO PUSH2 0x2B JUMPI PUSH1 0x0 DUP1 REVERT JUMPDEST POP PUSH2 0x173 DUP1 PUSH2 0x3B PUSH1 0x0 CODECOPY PUSH1 0x0 RETURN INVALID PUSH1 0x80 PUSH1 0x40 MSTORE CALLVALUE DUP1 ISZERO PUSH2 0x10 JUMPI PUSH1 0x0 DUP1 REVERT JUMPDEST POP PUSH1 0x4 CALLDATASIZE LT PUSH2 0x36 JUMPI PUSH1 0x0 CALLDATALOAD PUSH1 0xE0 SHR DUP1 PUSH4 0x3F3108F7 EQ PUSH2 0x3B JUMPI DUP1 PUSH4 0x4DDD108A EQ PUSH2 0x45 JUMPI JUMPDEST PUSH1 0x0 DUP1 REVERT JUMPDEST PUSH2 0x43 PUSH2 0x63 JUMP JUMPDEST STOP JUMPDEST PUSH2 0x4D PUSH2 0x9C JUMP JUMPDEST PUSH1 0x40 MLOAD PUSH2 0x5A SWAP2 SWAP1 PUSH2 0xBC JUMP JUMPDEST PUSH1 0x40 MLOAD DUP1 SWAP2 SUB SWAP1 RETURN JUMPDEST PUSH1 0x0 DUP1 DUP2 DUP2 SWAP1 SLOAD SWAP1 PUSH2 0x100 EXP SWAP1 DIV PUSH1 0xFF AND DUP1 SWAP3 SWAP2 SWAP1 PUSH2 0x81 SWAP1 PUSH2 0xE4 JUMP JUMPDEST SWAP2 SWAP1 PUSH2 0x100 EXP DUP2 SLOAD DUP2 PUSH1 0xFF MUL NOT AND SWAP1 DUP4 PUSH1 0xFF AND MUL OR SWAP1 SSTORE POP POP JUMP JUMPDEST PUSH1 0x0 DUP1 SLOAD SWAP1 PUSH2 0x100 EXP SWAP1 DIV PUSH1 0xFF AND DUP2 JUMP JUMPDEST PUSH2 0xB6 DUP2 PUSH2 0xD7 JUMP JUMPDEST DUP3 MSTORE POP POP JUMP JUMPDEST PUSH1 0x0 PUSH1 0x20 DUP3 ADD SWAP1 POP PUSH2 0xD1 PUSH1 0x0 DUP4 ADD DUP5 PUSH2 0xAD JUMP JUMPDEST SWAP3 SWAP2 POP POP JUMP JUMPDEST PUSH1 0x0 PUSH1 0xFF DUP3 AND SWAP1 POP SWAP2 SWAP1 POP JUMP JUMPDEST PUSH1 0x0 PUSH2 0xEF DUP3 PUSH2 0xD7 JUMP JUMPDEST SWAP2 POP PUSH1 0xFF DUP3 EQ ISZERO PUSH2 0x103 JUMPI PUSH2 0x102 PUSH2 0x10E JUMP JUMPDEST JUMPDEST PUSH1 0x1 DUP3 ADD SWAP1 POP SWAP2 SWAP1 POP JUMP JUMPDEST PUSH32 0x4E487B7100000000000000000000000000000000000000000000000000000000 PUSH1 0x0 MSTORE PUSH1 0x11 PUSH1 0x4 MSTORE PUSH1 0x24 PUSH1 0x0 REVERT INVALID LOG2 PUSH5 0x6970667358 0x22 SLT KECCAK256 MSTORE8 SWAP8 0xCA 0xE6 NUMBER SWAP3 PUSH19 0x702468669E1B0CBF6EE8975CDF2E2F5167C58 ADDRESS PUSH9 0x5DB16E5264736F6C63 NUMBER STOP ADDMOD STOP STOP CALLER "
				},
				"gasEstimates": {
					"creation": {
						"codeDepositCost": "74200",
						"executionCost": "20990",
						"totalCost": "95190"
					},
					"external": {
						"money()": "1168",
						"setter()": "21980"
					}
				},
				"methodIdentifiers": {
					"money()": "4ddd108a",
					"setter()": "3f3108f7"
				}
			},
			"storageLayout": {
				"storage": [
					{
						"astId": 4,
						"contract": "contracts/7_overflow_problem.sol:Overflow",
						"label": "money",
						"offset": 0,
						"slot": "0",
						"type": "t_uint8"
					}
				],
				"types": {
					"t_uint8": {
						"encoding": "inplace",
						"label": "uint8",
						"numberOfBytes": "1"
					}
				}
			},
			"userdoc": {
				"kind": "user",
				"methods": {},
				"version": 1
			}
		}
	}
}