{
	"contracts/17_avax_challenge_2.sol": {
		"ModiferUse": {
			"abi": [
				{
					"inputs": [],
					"stateMutability": "nonpayable",
					"type": "constructor"
				},
				{
					"inputs": [],
					"name": "get",
					"outputs": [
						{
							"internalType": "uint256",
							"name": "",
							"type": "uint256"
						}
					],
					"stateMutability": "view",
					"type": "function"
				},
				{
					"inputs": [],
					"name": "owner",
					"outputs": [
						{
							"internalType": "address",
							"name": "",
							"type": "address"
						}
					],
					"stateMutability": "view",
					"type": "function"
				},
				{
					"inputs": [
						{
							"internalType": "uint256",
							"name": "_x",
							"type": "uint256"
						}
					],
					"name": "set",
					"outputs": [],
					"stateMutability": "nonpayable",
					"type": "function"
				}
			],
			"devdoc": {
				"kind": "dev",
				"methods": {},
				"version": 1
			},
			"evm": {
				"assembly": "    /* \"contracts/17_avax_challenge_2.sol\":61:444  contract ModiferUse{... */\n  mstore(0x40, 0x80)\n    /* \"contracts/17_avax_challenge_2.sol\":96:98  10 */\n  0x0a\n    /* \"contracts/17_avax_challenge_2.sol\":87:98  uint x = 10 */\n  0x00\n  sstore\n    /* \"contracts/17_avax_challenge_2.sol\":136:186  constructor(){... */\n  callvalue\n  dup1\n  iszero\n  tag_1\n  jumpi\n  0x00\n  dup1\n  revert\ntag_1:\n  pop\n    /* \"contracts/17_avax_challenge_2.sol\":168:178  msg.sender */\n  caller\n    /* \"contracts/17_avax_challenge_2.sol\":160:165  owner */\n  0x01\n  0x00\n    /* \"contracts/17_avax_challenge_2.sol\":160:178  owner = msg.sender */\n  0x0100\n  exp\n  dup2\n  sload\n  dup2\n  0xffffffffffffffffffffffffffffffffffffffff\n  mul\n  not\n  and\n  swap1\n  dup4\n  0xffffffffffffffffffffffffffffffffffffffff\n  and\n  mul\n  or\n  swap1\n  sstore\n  pop\n    /* \"contracts/17_avax_challenge_2.sol\":61:444  contract ModiferUse{... */\n  dataSize(sub_0)\n  dup1\n  dataOffset(sub_0)\n  0x00\n  codecopy\n  0x00\n  return\nstop\n\nsub_0: assembly {\n        /* \"contracts/17_avax_challenge_2.sol\":61:444  contract ModiferUse{... */\n      mstore(0x40, 0x80)\n      callvalue\n      dup1\n      iszero\n      tag_1\n      jumpi\n      0x00\n      dup1\n      revert\n    tag_1:\n      pop\n      jumpi(tag_2, lt(calldatasize, 0x04))\n      shr(0xe0, calldataload(0x00))\n      dup1\n      0x60fe47b1\n      eq\n      tag_3\n      jumpi\n      dup1\n      0x6d4ce63c\n      eq\n      tag_4\n      jumpi\n      dup1\n      0x8da5cb5b\n      eq\n      tag_5\n      jumpi\n    tag_2:\n      0x00\n      dup1\n      revert\n        /* \"contracts/17_avax_challenge_2.sol\":267:331  function set(uint _x) public adminOnly {... */\n    tag_3:\n      tag_6\n      0x04\n      dup1\n      calldatasize\n      sub\n      dup2\n      add\n      swap1\n      tag_7\n      swap2\n      swap1\n      tag_8\n      jump\t// in\n    tag_7:\n      tag_9\n      jump\t// in\n    tag_6:\n      stop\n        /* \"contracts/17_avax_challenge_2.sol\":194:261  function get() public view returns(uint){... */\n    tag_4:\n      tag_10\n      tag_11\n      jump\t// in\n    tag_10:\n      mload(0x40)\n      tag_12\n      swap2\n      swap1\n      tag_13\n      jump\t// in\n    tag_12:\n      mload(0x40)\n      dup1\n      swap2\n      sub\n      swap1\n      return\n        /* \"contracts/17_avax_challenge_2.sol\":107:127  address public owner */\n    tag_5:\n      tag_14\n      tag_15\n      jump\t// in\n    tag_14:\n      mload(0x40)\n      tag_16\n      swap2\n      swap1\n      tag_17\n      jump\t// in\n    tag_16:\n      mload(0x40)\n      dup1\n      swap2\n      sub\n      swap1\n      return\n        /* \"contracts/17_avax_challenge_2.sol\":267:331  function set(uint _x) public adminOnly {... */\n    tag_9:\n        /* \"contracts/17_avax_challenge_2.sol\":392:397  owner */\n      0x01\n      0x00\n      swap1\n      sload\n      swap1\n      0x0100\n      exp\n      swap1\n      div\n      0xffffffffffffffffffffffffffffffffffffffff\n      and\n        /* \"contracts/17_avax_challenge_2.sol\":378:397  msg.sender == owner */\n      0xffffffffffffffffffffffffffffffffffffffff\n      and\n        /* \"contracts/17_avax_challenge_2.sol\":378:388  msg.sender */\n      caller\n        /* \"contracts/17_avax_challenge_2.sol\":378:397  msg.sender == owner */\n      0xffffffffffffffffffffffffffffffffffffffff\n      and\n      eq\n        /* \"contracts/17_avax_challenge_2.sol\":370:421  require(msg.sender == owner, \"Admin can call only\") */\n      tag_19\n      jumpi\n      mload(0x40)\n      0x08c379a000000000000000000000000000000000000000000000000000000000\n      dup2\n      mstore\n      0x04\n      add\n      tag_20\n      swap1\n      tag_21\n      jump\t// in\n    tag_20:\n      mload(0x40)\n      dup1\n      swap2\n      sub\n      swap1\n      revert\n    tag_19:\n        /* \"contracts/17_avax_challenge_2.sol\":321:323  _x */\n      dup1\n        /* \"contracts/17_avax_challenge_2.sol\":317:318  x */\n      0x00\n        /* \"contracts/17_avax_challenge_2.sol\":317:323  x = _x */\n      dup2\n      swap1\n      sstore\n      pop\n        /* \"contracts/17_avax_challenge_2.sol\":267:331  function set(uint _x) public adminOnly {... */\n      pop\n      jump\t// out\n        /* \"contracts/17_avax_challenge_2.sol\":194:261  function get() public view returns(uint){... */\n    tag_11:\n        /* \"contracts/17_avax_challenge_2.sol\":229:233  uint */\n      0x00\n        /* \"contracts/17_avax_challenge_2.sol\":252:253  x */\n      dup1\n      sload\n        /* \"contracts/17_avax_challenge_2.sol\":245:253  return x */\n      swap1\n      pop\n        /* \"contracts/17_avax_challenge_2.sol\":194:261  function get() public view returns(uint){... */\n      swap1\n      jump\t// out\n        /* \"contracts/17_avax_challenge_2.sol\":107:127  address public owner */\n    tag_15:\n      0x01\n      0x00\n      swap1\n      sload\n      swap1\n      0x0100\n      exp\n      swap1\n      div\n      0xffffffffffffffffffffffffffffffffffffffff\n      and\n      dup2\n      jump\t// out\n        /* \"#utility.yul\":88:205   */\n    tag_25:\n        /* \"#utility.yul\":197:198   */\n      0x00\n        /* \"#utility.yul\":194:195   */\n      dup1\n        /* \"#utility.yul\":187:199   */\n      revert\n        /* \"#utility.yul\":334:411   */\n    tag_27:\n        /* \"#utility.yul\":371:378   */\n      0x00\n        /* \"#utility.yul\":400:405   */\n      dup2\n        /* \"#utility.yul\":389:405   */\n      swap1\n      pop\n        /* \"#utility.yul\":334:411   */\n      swap2\n      swap1\n      pop\n      jump\t// out\n        /* \"#utility.yul\":417:539   */\n    tag_28:\n        /* \"#utility.yul\":490:514   */\n      tag_43\n        /* \"#utility.yul\":508:513   */\n      dup2\n        /* \"#utility.yul\":490:514   */\n      tag_27\n      jump\t// in\n    tag_43:\n        /* \"#utility.yul\":483:488   */\n      dup2\n        /* \"#utility.yul\":480:515   */\n      eq\n        /* \"#utility.yul\":470:533   */\n      tag_44\n      jumpi\n        /* \"#utility.yul\":529:530   */\n      0x00\n        /* \"#utility.yul\":526:527   */\n      dup1\n        /* \"#utility.yul\":519:531   */\n      revert\n        /* \"#utility.yul\":470:533   */\n    tag_44:\n        /* \"#utility.yul\":417:539   */\n      pop\n      jump\t// out\n        /* \"#utility.yul\":545:684   */\n    tag_29:\n        /* \"#utility.yul\":591:596   */\n      0x00\n        /* \"#utility.yul\":629:635   */\n      dup2\n        /* \"#utility.yul\":616:636   */\n      calldataload\n        /* \"#utility.yul\":607:636   */\n      swap1\n      pop\n        /* \"#utility.yul\":645:678   */\n      tag_46\n        /* \"#utility.yul\":672:677   */\n      dup2\n        /* \"#utility.yul\":645:678   */\n      tag_28\n      jump\t// in\n    tag_46:\n        /* \"#utility.yul\":545:684   */\n      swap3\n      swap2\n      pop\n      pop\n      jump\t// out\n        /* \"#utility.yul\":690:1019   */\n    tag_8:\n        /* \"#utility.yul\":749:755   */\n      0x00\n        /* \"#utility.yul\":798:800   */\n      0x20\n        /* \"#utility.yul\":786:795   */\n      dup3\n        /* \"#utility.yul\":777:784   */\n      dup5\n        /* \"#utility.yul\":773:796   */\n      sub\n        /* \"#utility.yul\":769:801   */\n      slt\n        /* \"#utility.yul\":766:885   */\n      iszero\n      tag_48\n      jumpi\n        /* \"#utility.yul\":804:883   */\n      tag_49\n      tag_25\n      jump\t// in\n    tag_49:\n        /* \"#utility.yul\":766:885   */\n    tag_48:\n        /* \"#utility.yul\":924:925   */\n      0x00\n        /* \"#utility.yul\":949:1002   */\n      tag_50\n        /* \"#utility.yul\":994:1001   */\n      dup5\n        /* \"#utility.yul\":985:991   */\n      dup3\n        /* \"#utility.yul\":974:983   */\n      dup6\n        /* \"#utility.yul\":970:992   */\n      add\n        /* \"#utility.yul\":949:1002   */\n      tag_29\n      jump\t// in\n    tag_50:\n        /* \"#utility.yul\":939:1002   */\n      swap2\n      pop\n        /* \"#utility.yul\":895:1012   */\n      pop\n        /* \"#utility.yul\":690:1019   */\n      swap3\n      swap2\n      pop\n      pop\n      jump\t// out\n        /* \"#utility.yul\":1025:1143   */\n    tag_30:\n        /* \"#utility.yul\":1112:1136   */\n      tag_52\n        /* \"#utility.yul\":1130:1135   */\n      dup2\n        /* \"#utility.yul\":1112:1136   */\n      tag_27\n      jump\t// in\n    tag_52:\n        /* \"#utility.yul\":1107:1110   */\n      dup3\n        /* \"#utility.yul\":1100:1137   */\n      mstore\n        /* \"#utility.yul\":1025:1143   */\n      pop\n      pop\n      jump\t// out\n        /* \"#utility.yul\":1149:1371   */\n    tag_13:\n        /* \"#utility.yul\":1242:1246   */\n      0x00\n        /* \"#utility.yul\":1280:1282   */\n      0x20\n        /* \"#utility.yul\":1269:1278   */\n      dup3\n        /* \"#utility.yul\":1265:1283   */\n      add\n        /* \"#utility.yul\":1257:1283   */\n      swap1\n      pop\n        /* \"#utility.yul\":1293:1364   */\n      tag_54\n        /* \"#utility.yul\":1361:1362   */\n      0x00\n        /* \"#utility.yul\":1350:1359   */\n      dup4\n        /* \"#utility.yul\":1346:1363   */\n      add\n        /* \"#utility.yul\":1337:1343   */\n      dup5\n        /* \"#utility.yul\":1293:1364   */\n      tag_30\n      jump\t// in\n    tag_54:\n        /* \"#utility.yul\":1149:1371   */\n      swap3\n      swap2\n      pop\n      pop\n      jump\t// out\n        /* \"#utility.yul\":1377:1503   */\n    tag_31:\n        /* \"#utility.yul\":1414:1421   */\n      0x00\n        /* \"#utility.yul\":1454:1496   */\n      0xffffffffffffffffffffffffffffffffffffffff\n        /* \"#utility.yul\":1447:1452   */\n      dup3\n        /* \"#utility.yul\":1443:1497   */\n      and\n        /* \"#utility.yul\":1432:1497   */\n      swap1\n      pop\n        /* \"#utility.yul\":1377:1503   */\n      swap2\n      swap1\n      pop\n      jump\t// out\n        /* \"#utility.yul\":1509:1605   */\n    tag_32:\n        /* \"#utility.yul\":1546:1553   */\n      0x00\n        /* \"#utility.yul\":1575:1599   */\n      tag_57\n        /* \"#utility.yul\":1593:1598   */\n      dup3\n        /* \"#utility.yul\":1575:1599   */\n      tag_31\n      jump\t// in\n    tag_57:\n        /* \"#utility.yul\":1564:1599   */\n      swap1\n      pop\n        /* \"#utility.yul\":1509:1605   */\n      swap2\n      swap1\n      pop\n      jump\t// out\n        /* \"#utility.yul\":1611:1729   */\n    tag_33:\n        /* \"#utility.yul\":1698:1722   */\n      tag_59\n        /* \"#utility.yul\":1716:1721   */\n      dup2\n        /* \"#utility.yul\":1698:1722   */\n      tag_32\n      jump\t// in\n    tag_59:\n        /* \"#utility.yul\":1693:1696   */\n      dup3\n        /* \"#utility.yul\":1686:1723   */\n      mstore\n        /* \"#utility.yul\":1611:1729   */\n      pop\n      pop\n      jump\t// out\n        /* \"#utility.yul\":1735:1957   */\n    tag_17:\n        /* \"#utility.yul\":1828:1832   */\n      0x00\n        /* \"#utility.yul\":1866:1868   */\n      0x20\n        /* \"#utility.yul\":1855:1864   */\n      dup3\n        /* \"#utility.yul\":1851:1869   */\n      add\n        /* \"#utility.yul\":1843:1869   */\n      swap1\n      pop\n        /* \"#utility.yul\":1879:1950   */\n      tag_61\n        /* \"#utility.yul\":1947:1948   */\n      0x00\n        /* \"#utility.yul\":1936:1945   */\n      dup4\n        /* \"#utility.yul\":1932:1949   */\n      add\n        /* \"#utility.yul\":1923:1929   */\n      dup5\n        /* \"#utility.yul\":1879:1950   */\n      tag_33\n      jump\t// in\n    tag_61:\n        /* \"#utility.yul\":1735:1957   */\n      swap3\n      swap2\n      pop\n      pop\n      jump\t// out\n        /* \"#utility.yul\":1963:2132   */\n    tag_34:\n        /* \"#utility.yul\":2047:2058   */\n      0x00\n        /* \"#utility.yul\":2081:2087   */\n      dup3\n        /* \"#utility.yul\":2076:2079   */\n      dup3\n        /* \"#utility.yul\":2069:2088   */\n      mstore\n        /* \"#utility.yul\":2121:2125   */\n      0x20\n        /* \"#utility.yul\":2116:2119   */\n      dup3\n        /* \"#utility.yul\":2112:2126   */\n      add\n        /* \"#utility.yul\":2097:2126   */\n      swap1\n      pop\n        /* \"#utility.yul\":1963:2132   */\n      swap3\n      swap2\n      pop\n      pop\n      jump\t// out\n        /* \"#utility.yul\":2138:2307   */\n    tag_35:\n        /* \"#utility.yul\":2278:2299   */\n      0x41646d696e2063616e2063616c6c206f6e6c7900000000000000000000000000\n        /* \"#utility.yul\":2274:2275   */\n      0x00\n        /* \"#utility.yul\":2266:2272   */\n      dup3\n        /* \"#utility.yul\":2262:2276   */\n      add\n        /* \"#utility.yul\":2255:2300   */\n      mstore\n        /* \"#utility.yul\":2138:2307   */\n      pop\n      jump\t// out\n        /* \"#utility.yul\":2313:2679   */\n    tag_36:\n        /* \"#utility.yul\":2455:2458   */\n      0x00\n        /* \"#utility.yul\":2476:2543   */\n      tag_65\n        /* \"#utility.yul\":2540:2542   */\n      0x13\n        /* \"#utility.yul\":2535:2538   */\n      dup4\n        /* \"#utility.yul\":2476:2543   */\n      tag_34\n      jump\t// in\n    tag_65:\n        /* \"#utility.yul\":2469:2543   */\n      swap2\n      pop\n        /* \"#utility.yul\":2552:2645   */\n      tag_66\n        /* \"#utility.yul\":2641:2644   */\n      dup3\n        /* \"#utility.yul\":2552:2645   */\n      tag_35\n      jump\t// in\n    tag_66:\n        /* \"#utility.yul\":2670:2672   */\n      0x20\n        /* \"#utility.yul\":2665:2668   */\n      dup3\n        /* \"#utility.yul\":2661:2673   */\n      add\n        /* \"#utility.yul\":2654:2673   */\n      swap1\n      pop\n        /* \"#utility.yul\":2313:2679   */\n      swap2\n      swap1\n      pop\n      jump\t// out\n        /* \"#utility.yul\":2685:3104   */\n    tag_21:\n        /* \"#utility.yul\":2851:2855   */\n      0x00\n        /* \"#utility.yul\":2889:2891   */\n      0x20\n        /* \"#utility.yul\":2878:2887   */\n      dup3\n        /* \"#utility.yul\":2874:2892   */\n      add\n        /* \"#utility.yul\":2866:2892   */\n      swap1\n      pop\n        /* \"#utility.yul\":2938:2947   */\n      dup2\n        /* \"#utility.yul\":2932:2936   */\n      dup2\n        /* \"#utility.yul\":2928:2948   */\n      sub\n        /* \"#utility.yul\":2924:2925   */\n      0x00\n        /* \"#utility.yul\":2913:2922   */\n      dup4\n        /* \"#utility.yul\":2909:2926   */\n      add\n        /* \"#utility.yul\":2902:2949   */\n      mstore\n        /* \"#utility.yul\":2966:3097   */\n      tag_68\n        /* \"#utility.yul\":3092:3096   */\n      dup2\n        /* \"#utility.yul\":2966:3097   */\n      tag_36\n      jump\t// in\n    tag_68:\n        /* \"#utility.yul\":2958:3097   */\n      swap1\n      pop\n        /* \"#utility.yul\":2685:3104   */\n      swap2\n      swap1\n      pop\n      jump\t// out\n\n    auxdata: 0xa2646970667358221220f732587d22fe7a9ea4b463722a84f69a10cdc915f6d8a7dfe16d5de78d091eb364736f6c63430008190033\n}\n",
				"bytecode": {
					"linkReferences": {},
					"object": "6080604052600a5f553480156012575f80fd5b503360015f6101000a81548173ffffffffffffffffffffffffffffffffffffffff021916908373ffffffffffffffffffffffffffffffffffffffff1602179055506102f0806100605f395ff3fe608060405234801561000f575f80fd5b506004361061003f575f3560e01c806360fe47b1146100435780636d4ce63c1461005f5780638da5cb5b1461007d575b5f80fd5b61005d60048036038101906100589190610197565b61009b565b005b610067610133565b60405161007491906101d1565b60405180910390f35b61008561013b565b6040516100929190610229565b60405180910390f35b60015f9054906101000a900473ffffffffffffffffffffffffffffffffffffffff1673ffffffffffffffffffffffffffffffffffffffff163373ffffffffffffffffffffffffffffffffffffffff161461012a576040517f08c379a00000000000000000000000000000000000000000000000000000000081526004016101219061029c565b60405180910390fd5b805f8190555050565b5f8054905090565b60015f9054906101000a900473ffffffffffffffffffffffffffffffffffffffff1681565b5f80fd5b5f819050919050565b61017681610164565b8114610180575f80fd5b50565b5f813590506101918161016d565b92915050565b5f602082840312156101ac576101ab610160565b5b5f6101b984828501610183565b91505092915050565b6101cb81610164565b82525050565b5f6020820190506101e45f8301846101c2565b92915050565b5f73ffffffffffffffffffffffffffffffffffffffff82169050919050565b5f610213826101ea565b9050919050565b61022381610209565b82525050565b5f60208201905061023c5f83018461021a565b92915050565b5f82825260208201905092915050565b7f41646d696e2063616e2063616c6c206f6e6c79000000000000000000000000005f82015250565b5f610286601383610242565b915061029182610252565b602082019050919050565b5f6020820190508181035f8301526102b38161027a565b905091905056fea2646970667358221220f732587d22fe7a9ea4b463722a84f69a10cdc915f6d8a7dfe16d5de78d091eb364736f6c63430008190033",
					"opcodes": "PUSH1 0x80 PUSH1 0x40 MSTORE PUSH1 0xA PUSH0 SSTORE CALLVALUE DUP1 ISZERO PUSH1 0x12 JUMPI PUSH0 DUP1 REVERT JUMPDEST POP CALLER PUSH1 0x1 PUSH0 PUSH2 0x100 EXP DUP2 SLOAD DUP2 PUSH20 0xFFFFFFFFFFFFFFFFFFFFFFFFFFFFFFFFFFFFFFFF MUL NOT AND SWAP1 DUP4 PUSH20 0xFFFFFFFFFFFFFFFFFFFFFFFFFFFFFFFFFFFFFFFF AND MUL OR SWAP1 SSTORE POP PUSH2 0x2F0 DUP1 PUSH2 0x60 PUSH0 CODECOPY PUSH0 RETURN INVALID PUSH1 0x80 PUSH1 0x40 MSTORE CALLVALUE DUP1 ISZERO PUSH2 0xF JUMPI PUSH0 DUP1 REVERT JUMPDEST POP PUSH1 0x4 CALLDATASIZE LT PUSH2 0x3F JUMPI PUSH0 CALLDATALOAD PUSH1 0xE0 SHR DUP1 PUSH4 0x60FE47B1 EQ PUSH2 0x43 JUMPI DUP1 PUSH4 0x6D4CE63C EQ PUSH2 0x5F JUMPI DUP1 PUSH4 0x8DA5CB5B EQ PUSH2 0x7D JUMPI JUMPDEST PUSH0 DUP1 REVERT JUMPDEST PUSH2 0x5D PUSH1 0x4 DUP1 CALLDATASIZE SUB DUP2 ADD SWAP1 PUSH2 0x58 SWAP2 SWAP1 PUSH2 0x197 JUMP JUMPDEST PUSH2 0x9B JUMP JUMPDEST STOP JUMPDEST PUSH2 0x67 PUSH2 0x133 JUMP JUMPDEST PUSH1 0x40 MLOAD PUSH2 0x74 SWAP2 SWAP1 PUSH2 0x1D1 JUMP JUMPDEST PUSH1 0x40 MLOAD DUP1 SWAP2 SUB SWAP1 RETURN JUMPDEST PUSH2 0x85 PUSH2 0x13B JUMP JUMPDEST PUSH1 0x40 MLOAD PUSH2 0x92 SWAP2 SWAP1 PUSH2 0x229 JUMP JUMPDEST PUSH1 0x40 MLOAD DUP1 SWAP2 SUB SWAP1 RETURN JUMPDEST PUSH1 0x1 PUSH0 SWAP1 SLOAD SWAP1 PUSH2 0x100 EXP SWAP1 DIV PUSH20 0xFFFFFFFFFFFFFFFFFFFFFFFFFFFFFFFFFFFFFFFF AND PUSH20 0xFFFFFFFFFFFFFFFFFFFFFFFFFFFFFFFFFFFFFFFF AND CALLER PUSH20 0xFFFFFFFFFFFFFFFFFFFFFFFFFFFFFFFFFFFFFFFF AND EQ PUSH2 0x12A JUMPI PUSH1 0x40 MLOAD PUSH32 0x8C379A000000000000000000000000000000000000000000000000000000000 DUP2 MSTORE PUSH1 0x4 ADD PUSH2 0x121 SWAP1 PUSH2 0x29C JUMP JUMPDEST PUSH1 0x40 MLOAD DUP1 SWAP2 SUB SWAP1 REVERT JUMPDEST DUP1 PUSH0 DUP2 SWAP1 SSTORE POP POP JUMP JUMPDEST PUSH0 DUP1 SLOAD SWAP1 POP SWAP1 JUMP JUMPDEST PUSH1 0x1 PUSH0 SWAP1 SLOAD SWAP1 PUSH2 0x100 EXP SWAP1 DIV PUSH20 0xFFFFFFFFFFFFFFFFFFFFFFFFFFFFFFFFFFFFFFFF AND DUP2 JUMP JUMPDEST PUSH0 DUP1 REVERT JUMPDEST PUSH0 DUP2 SWAP1 POP SWAP2 SWAP1 POP JUMP JUMPDEST PUSH2 0x176 DUP2 PUSH2 0x164 JUMP JUMPDEST DUP2 EQ PUSH2 0x180 JUMPI PUSH0 DUP1 REVERT JUMPDEST POP JUMP JUMPDEST PUSH0 DUP2 CALLDATALOAD SWAP1 POP PUSH2 0x191 DUP2 PUSH2 0x16D JUMP JUMPDEST SWAP3 SWAP2 POP POP JUMP JUMPDEST PUSH0 PUSH1 0x20 DUP3 DUP5 SUB SLT ISZERO PUSH2 0x1AC JUMPI PUSH2 0x1AB PUSH2 0x160 JUMP JUMPDEST JUMPDEST PUSH0 PUSH2 0x1B9 DUP5 DUP3 DUP6 ADD PUSH2 0x183 JUMP JUMPDEST SWAP2 POP POP SWAP3 SWAP2 POP POP JUMP JUMPDEST PUSH2 0x1CB DUP2 PUSH2 0x164 JUMP JUMPDEST DUP3 MSTORE POP POP JUMP JUMPDEST PUSH0 PUSH1 0x20 DUP3 ADD SWAP1 POP PUSH2 0x1E4 PUSH0 DUP4 ADD DUP5 PUSH2 0x1C2 JUMP JUMPDEST SWAP3 SWAP2 POP POP JUMP JUMPDEST PUSH0 PUSH20 0xFFFFFFFFFFFFFFFFFFFFFFFFFFFFFFFFFFFFFFFF DUP3 AND SWAP1 POP SWAP2 SWAP1 POP JUMP JUMPDEST PUSH0 PUSH2 0x213 DUP3 PUSH2 0x1EA JUMP JUMPDEST SWAP1 POP SWAP2 SWAP1 POP JUMP JUMPDEST PUSH2 0x223 DUP2 PUSH2 0x209 JUMP JUMPDEST DUP3 MSTORE POP POP JUMP JUMPDEST PUSH0 PUSH1 0x20 DUP3 ADD SWAP1 POP PUSH2 0x23C PUSH0 DUP4 ADD DUP5 PUSH2 0x21A JUMP JUMPDEST SWAP3 SWAP2 POP POP JUMP JUMPDEST PUSH0 DUP3 DUP3 MSTORE PUSH1 0x20 DUP3 ADD SWAP1 POP SWAP3 SWAP2 POP POP JUMP JUMPDEST PUSH32 0x41646D696E2063616E2063616C6C206F6E6C7900000000000000000000000000 PUSH0 DUP3 ADD MSTORE POP JUMP JUMPDEST PUSH0 PUSH2 0x286 PUSH1 0x13 DUP4 PUSH2 0x242 JUMP JUMPDEST SWAP2 POP PUSH2 0x291 DUP3 PUSH2 0x252 JUMP JUMPDEST PUSH1 0x20 DUP3 ADD SWAP1 POP SWAP2 SWAP1 POP JUMP JUMPDEST PUSH0 PUSH1 0x20 DUP3 ADD SWAP1 POP DUP2 DUP2 SUB PUSH0 DUP4 ADD MSTORE PUSH2 0x2B3 DUP2 PUSH2 0x27A JUMP JUMPDEST SWAP1 POP SWAP2 SWAP1 POP JUMP INVALID LOG2 PUSH5 0x6970667358 0x22 SLT KECCAK256 0xF7 ORIGIN PC PUSH30 0x22FE7A9EA4B463722A84F69A10CDC915F6D8A7DFE16D5DE78D091EB36473 PUSH16 0x6C634300081900330000000000000000 "
				},
				"gasEstimates": {
					"creation": {
						"codeDepositCost": "150400",
						"executionCost": "46564",
						"totalCost": "196964"
					},
					"external": {
						"get()": "2432",
						"owner()": "2530",
						"set(uint256)": "24661"
					}
				},
				"methodIdentifiers": {
					"get()": "6d4ce63c",
					"owner()": "8da5cb5b",
					"set(uint256)": "60fe47b1"
				}
			},
			"storageLayout": {
				"storage": [
					{
						"astId": 4,
						"contract": "contracts/17_avax_challenge_2.sol:ModiferUse",
						"label": "x",
						"offset": 0,
						"slot": "0",
						"type": "t_uint256"
					},
					{
						"astId": 6,
						"contract": "contracts/17_avax_challenge_2.sol:ModiferUse",
						"label": "owner",
						"offset": 0,
						"slot": "1",
						"type": "t_address"
					}
				],
				"types": {
					"t_address": {
						"encoding": "inplace",
						"label": "address",
						"numberOfBytes": "20"
					},
					"t_uint256": {
						"encoding": "inplace",
						"label": "uint256",
						"numberOfBytes": "32"
					}
				}
			},
			"userdoc": {
				"kind": "user",
				"methods": {},
				"version": 1
			}
		}
	}
}