{
	"data": {
		"bytecode": {
			"linkReferences": {},
			"object": "6080604052348015600e575f80fd5b50601260015f6101000a81548160ff021916908360ff1602179055505f6001806101000a81548160ff0219169083151502179055506109bc806100505f395ff3fe608060405234801561000f575f80fd5b5060043610610086575f3560e01c8063bb30428411610059578063bb304284146100fe578063c47f00271461011c578063e30081a014610138578063fba7cc791461015457610086565b806317d7de7c1461008a5780632750fc78146100a85780635b0c8d70146100c4578063967e6e65146100e0575b5f80fd5b610092610172565b60405161009f9190610352565b60405180910390f35b6100c260048036038101906100bd91906103b8565b610201565b005b6100de60048036038101906100d99190610419565b61021d565b005b6100e861023a565b6040516100f59190610453565b60405180910390f35b61010661024f565b60405161011391906104ab565b60405180910390f35b610136600480360381019061013191906105f0565b610278565b005b610152600480360381019061014d9190610661565b61028a565b005b61015c6102ce565b604051610169919061069b565b60405180910390f35b60605f8054610180906106e1565b80601f01602080910402602001604051908101604052809291908181526020018280546101ac906106e1565b80156101f75780601f106101ce576101008083540402835291602001916101f7565b820191905f5260205f20905b8154815290600101906020018083116101da57829003601f168201915b5050505050905090565b806001806101000a81548160ff02191690831515021790555050565b8060015f6101000a81548160ff021916908360ff16021790555050565b5f60015f9054906101000a900460ff16905090565b5f600160029054906101000a900473ffffffffffffffffffffffffffffffffffffffff16905090565b805f908161028691906108b7565b5050565b80600160026101000a81548173ffffffffffffffffffffffffffffffffffffffff021916908373ffffffffffffffffffffffffffffffffffffffff16021790555050565b5f60018054906101000a900460ff16905090565b5f81519050919050565b5f82825260208201905092915050565b8281835e5f83830152505050565b5f601f19601f8301169050919050565b5f610324826102e2565b61032e81856102ec565b935061033e8185602086016102fc565b6103478161030a565b840191505092915050565b5f6020820190508181035f83015261036a818461031a565b905092915050565b5f604051905090565b5f80fd5b5f80fd5b5f8115159050919050565b61039781610383565b81146103a1575f80fd5b50565b5f813590506103b28161038e565b92915050565b5f602082840312156103cd576103cc61037b565b5b5f6103da848285016103a4565b91505092915050565b5f60ff82169050919050565b6103f8816103e3565b8114610402575f80fd5b50565b5f81359050610413816103ef565b92915050565b5f6020828403121561042e5761042d61037b565b5b5f61043b84828501610405565b91505092915050565b61044d816103e3565b82525050565b5f6020820190506104665f830184610444565b92915050565b5f73ffffffffffffffffffffffffffffffffffffffff82169050919050565b5f6104958261046c565b9050919050565b6104a58161048b565b82525050565b5f6020820190506104be5f83018461049c565b92915050565b5f80fd5b5f80fd5b7f4e487b71000000000000000000000000000000000000000000000000000000005f52604160045260245ffd5b6105028261030a565b810181811067ffffffffffffffff82111715610521576105206104cc565b5b80604052505050565b5f610533610372565b905061053f82826104f9565b919050565b5f67ffffffffffffffff82111561055e5761055d6104cc565b5b6105678261030a565b9050602081019050919050565b828183375f83830152505050565b5f61059461058f84610544565b61052a565b9050828152602081018484840111156105b0576105af6104c8565b5b6105bb848285610574565b509392505050565b5f82601f8301126105d7576105d66104c4565b5b81356105e7848260208601610582565b91505092915050565b5f602082840312156106055761060461037b565b5b5f82013567ffffffffffffffff8111156106225761062161037f565b5b61062e848285016105c3565b91505092915050565b6106408161048b565b811461064a575f80fd5b50565b5f8135905061065b81610637565b92915050565b5f602082840312156106765761067561037b565b5b5f6106838482850161064d565b91505092915050565b61069581610383565b82525050565b5f6020820190506106ae5f83018461068c565b92915050565b7f4e487b71000000000000000000000000000000000000000000000000000000005f52602260045260245ffd5b5f60028204905060018216806106f857607f821691505b60208210810361070b5761070a6106b4565b5b50919050565b5f819050815f5260205f209050919050565b5f6020601f8301049050919050565b5f82821b905092915050565b5f6008830261076d7fffffffffffffffffffffffffffffffffffffffffffffffffffffffffffffffff82610732565b6107778683610732565b95508019841693508086168417925050509392505050565b5f819050919050565b5f819050919050565b5f6107bb6107b66107b18461078f565b610798565b61078f565b9050919050565b5f819050919050565b6107d4836107a1565b6107e86107e0826107c2565b84845461073e565b825550505050565b5f90565b6107fc6107f0565b6108078184846107cb565b505050565b5b8181101561082a5761081f5f826107f4565b60018101905061080d565b5050565b601f82111561086f5761084081610711565b61084984610723565b81016020851015610858578190505b61086c61086485610723565b83018261080c565b50505b505050565b5f82821c905092915050565b5f61088f5f1984600802610874565b1980831691505092915050565b5f6108a78383610880565b9150826002028217905092915050565b6108c0826102e2565b67ffffffffffffffff8111156108d9576108d86104cc565b5b6108e382546106e1565b6108ee82828561082e565b5f60209050601f83116001811461091f575f841561090d578287015190505b610917858261089c565b86555061097e565b601f19841661092d86610711565b5f5b828110156109545784890151825560018201915060208501945060208101905061092f565b86831015610971578489015161096d601f891682610880565b8355505b6001600288020188555050505b50505050505056fea2646970667358221220cf72d64395e564328ffc563cc8e4936b638d28ccf1e302c689ed0c98859660ab64736f6c63430008190033",
			"opcodes": "PUSH1 0x80 PUSH1 0x40 MSTORE CALLVALUE DUP1 ISZERO PUSH1 0xE JUMPI PUSH0 DUP1 REVERT JUMPDEST POP PUSH1 0x12 PUSH1 0x1 PUSH0 PUSH2 0x100 EXP DUP2 SLOAD DUP2 PUSH1 0xFF MUL NOT AND SWAP1 DUP4 PUSH1 0xFF AND MUL OR SWAP1 SSTORE POP PUSH0 PUSH1 0x1 DUP1 PUSH2 0x100 EXP DUP2 SLOAD DUP2 PUSH1 0xFF MUL NOT AND SWAP1 DUP4 ISZERO ISZERO MUL OR SWAP1 SSTORE POP PUSH2 0x9BC DUP1 PUSH2 0x50 PUSH0 CODECOPY PUSH0 RETURN INVALID PUSH1 0x80 PUSH1 0x40 MSTORE CALLVALUE DUP1 ISZERO PUSH2 0xF JUMPI PUSH0 DUP1 REVERT JUMPDEST POP PUSH1 0x4 CALLDATASIZE LT PUSH2 0x86 JUMPI PUSH0 CALLDATALOAD PUSH1 0xE0 SHR DUP1 PUSH4 0xBB304284 GT PUSH2 0x59 JUMPI DUP1 PUSH4 0xBB304284 EQ PUSH2 0xFE JUMPI DUP1 PUSH4 0xC47F0027 EQ PUSH2 0x11C JUMPI DUP1 PUSH4 0xE30081A0 EQ PUSH2 0x138 JUMPI DUP1 PUSH4 0xFBA7CC79 EQ PUSH2 0x154 JUMPI PUSH2 0x86 JUMP JUMPDEST DUP1 PUSH4 0x17D7DE7C EQ PUSH2 0x8A JUMPI DUP1 PUSH4 0x2750FC78 EQ PUSH2 0xA8 JUMPI DUP1 PUSH4 0x5B0C8D70 EQ PUSH2 0xC4 JUMPI DUP1 PUSH4 0x967E6E65 EQ PUSH2 0xE0 JUMPI JUMPDEST PUSH0 DUP1 REVERT JUMPDEST PUSH2 0x92 PUSH2 0x172 JUMP JUMPDEST PUSH1 0x40 MLOAD PUSH2 0x9F SWAP2 SWAP1 PUSH2 0x352 JUMP JUMPDEST PUSH1 0x40 MLOAD DUP1 SWAP2 SUB SWAP1 RETURN JUMPDEST PUSH2 0xC2 PUSH1 0x4 DUP1 CALLDATASIZE SUB DUP2 ADD SWAP1 PUSH2 0xBD SWAP2 SWAP1 PUSH2 0x3B8 JUMP JUMPDEST PUSH2 0x201 JUMP JUMPDEST STOP JUMPDEST PUSH2 0xDE PUSH1 0x4 DUP1 CALLDATASIZE SUB DUP2 ADD SWAP1 PUSH2 0xD9 SWAP2 SWAP1 PUSH2 0x419 JUMP JUMPDEST PUSH2 0x21D JUMP JUMPDEST STOP JUMPDEST PUSH2 0xE8 PUSH2 0x23A JUMP JUMPDEST PUSH1 0x40 MLOAD PUSH2 0xF5 SWAP2 SWAP1 PUSH2 0x453 JUMP JUMPDEST PUSH1 0x40 MLOAD DUP1 SWAP2 SUB SWAP1 RETURN JUMPDEST PUSH2 0x106 PUSH2 0x24F JUMP JUMPDEST PUSH1 0x40 MLOAD PUSH2 0x113 SWAP2 SWAP1 PUSH2 0x4AB JUMP JUMPDEST PUSH1 0x40 MLOAD DUP1 SWAP2 SUB SWAP1 RETURN JUMPDEST PUSH2 0x136 PUSH1 0x4 DUP1 CALLDATASIZE SUB DUP2 ADD SWAP1 PUSH2 0x131 SWAP2 SWAP1 PUSH2 0x5F0 JUMP JUMPDEST PUSH2 0x278 JUMP JUMPDEST STOP JUMPDEST PUSH2 0x152 PUSH1 0x4 DUP1 CALLDATASIZE SUB DUP2 ADD SWAP1 PUSH2 0x14D SWAP2 SWAP1 PUSH2 0x661 JUMP JUMPDEST PUSH2 0x28A JUMP JUMPDEST STOP JUMPDEST PUSH2 0x15C PUSH2 0x2CE JUMP JUMPDEST PUSH1 0x40 MLOAD PUSH2 0x169 SWAP2 SWAP1 PUSH2 0x69B JUMP JUMPDEST PUSH1 0x40 MLOAD DUP1 SWAP2 SUB SWAP1 RETURN JUMPDEST PUSH1 0x60 PUSH0 DUP1 SLOAD PUSH2 0x180 SWAP1 PUSH2 0x6E1 JUMP JUMPDEST DUP1 PUSH1 0x1F ADD PUSH1 0x20 DUP1 SWAP2 DIV MUL PUSH1 0x20 ADD PUSH1 0x40 MLOAD SWAP1 DUP2 ADD PUSH1 0x40 MSTORE DUP1 SWAP3 SWAP2 SWAP1 DUP2 DUP2 MSTORE PUSH1 0x20 ADD DUP3 DUP1 SLOAD PUSH2 0x1AC SWAP1 PUSH2 0x6E1 JUMP JUMPDEST DUP1 ISZERO PUSH2 0x1F7 JUMPI DUP1 PUSH1 0x1F LT PUSH2 0x1CE JUMPI PUSH2 0x100 DUP1 DUP4 SLOAD DIV MUL DUP4 MSTORE SWAP2 PUSH1 0x20 ADD SWAP2 PUSH2 0x1F7 JUMP JUMPDEST DUP3 ADD SWAP2 SWAP1 PUSH0 MSTORE PUSH1 0x20 PUSH0 KECCAK256 SWAP1 JUMPDEST DUP2 SLOAD DUP2 MSTORE SWAP1 PUSH1 0x1 ADD SWAP1 PUSH1 0x20 ADD DUP1 DUP4 GT PUSH2 0x1DA JUMPI DUP3 SWAP1 SUB PUSH1 0x1F AND DUP3 ADD SWAP2 JUMPDEST POP POP POP POP POP SWAP1 POP SWAP1 JUMP JUMPDEST DUP1 PUSH1 0x1 DUP1 PUSH2 0x100 EXP DUP2 SLOAD DUP2 PUSH1 0xFF MUL NOT AND SWAP1 DUP4 ISZERO ISZERO MUL OR SWAP1 SSTORE POP POP JUMP JUMPDEST DUP1 PUSH1 0x1 PUSH0 PUSH2 0x100 EXP DUP2 SLOAD DUP2 PUSH1 0xFF MUL NOT AND SWAP1 DUP4 PUSH1 0xFF AND MUL OR SWAP1 SSTORE POP POP JUMP JUMPDEST PUSH0 PUSH1 0x1 PUSH0 SWAP1 SLOAD SWAP1 PUSH2 0x100 EXP SWAP1 DIV PUSH1 0xFF AND SWAP1 POP SWAP1 JUMP JUMPDEST PUSH0 PUSH1 0x1 PUSH1 0x2 SWAP1 SLOAD SWAP1 PUSH2 0x100 EXP SWAP1 DIV PUSH20 0xFFFFFFFFFFFFFFFFFFFFFFFFFFFFFFFFFFFFFFFF AND SWAP1 POP SWAP1 JUMP JUMPDEST DUP1 PUSH0 SWAP1 DUP2 PUSH2 0x286 SWAP2 SWAP1 PUSH2 0x8B7 JUMP JUMPDEST POP POP JUMP JUMPDEST DUP1 PUSH1 0x1 PUSH1 0x2 PUSH2 0x100 EXP DUP2 SLOAD DUP2 PUSH20 0xFFFFFFFFFFFFFFFFFFFFFFFFFFFFFFFFFFFFFFFF MUL NOT AND SWAP1 DUP4 PUSH20 0xFFFFFFFFFFFFFFFFFFFFFFFFFFFFFFFFFFFFFFFF AND MUL OR SWAP1 SSTORE POP POP JUMP JUMPDEST PUSH0 PUSH1 0x1 DUP1 SLOAD SWAP1 PUSH2 0x100 EXP SWAP1 DIV PUSH1 0xFF AND SWAP1 POP SWAP1 JUMP JUMPDEST PUSH0 DUP2 MLOAD SWAP1 POP SWAP2 SWAP1 POP JUMP JUMPDEST PUSH0 DUP3 DUP3 MSTORE PUSH1 0x20 DUP3 ADD SWAP1 POP SWAP3 SWAP2 POP POP JUMP JUMPDEST DUP3 DUP2 DUP4 MCOPY PUSH0 DUP4 DUP4 ADD MSTORE POP POP POP JUMP JUMPDEST PUSH0 PUSH1 0x1F NOT PUSH1 0x1F DUP4 ADD AND SWAP1 POP SWAP2 SWAP1 POP JUMP JUMPDEST PUSH0 PUSH2 0x324 DUP3 PUSH2 0x2E2 JUMP JUMPDEST PUSH2 0x32E DUP2 DUP6 PUSH2 0x2EC JUMP JUMPDEST SWAP4 POP PUSH2 0x33E DUP2 DUP6 PUSH1 0x20 DUP7 ADD PUSH2 0x2FC JUMP JUMPDEST PUSH2 0x347 DUP2 PUSH2 0x30A JUMP JUMPDEST DUP5 ADD SWAP2 POP POP SWAP3 SWAP2 POP POP JUMP JUMPDEST PUSH0 PUSH1 0x20 DUP3 ADD SWAP1 POP DUP2 DUP2 SUB PUSH0 DUP4 ADD MSTORE PUSH2 0x36A DUP2 DUP5 PUSH2 0x31A JUMP JUMPDEST SWAP1 POP SWAP3 SWAP2 POP POP JUMP JUMPDEST PUSH0 PUSH1 0x40 MLOAD SWAP1 POP SWAP1 JUMP JUMPDEST PUSH0 DUP1 REVERT JUMPDEST PUSH0 DUP1 REVERT JUMPDEST PUSH0 DUP2 ISZERO ISZERO SWAP1 POP SWAP2 SWAP1 POP JUMP JUMPDEST PUSH2 0x397 DUP2 PUSH2 0x383 JUMP JUMPDEST DUP2 EQ PUSH2 0x3A1 JUMPI PUSH0 DUP1 REVERT JUMPDEST POP JUMP JUMPDEST PUSH0 DUP2 CALLDATALOAD SWAP1 POP PUSH2 0x3B2 DUP2 PUSH2 0x38E JUMP JUMPDEST SWAP3 SWAP2 POP POP JUMP JUMPDEST PUSH0 PUSH1 0x20 DUP3 DUP5 SUB SLT ISZERO PUSH2 0x3CD JUMPI PUSH2 0x3CC PUSH2 0x37B JUMP JUMPDEST JUMPDEST PUSH0 PUSH2 0x3DA DUP5 DUP3 DUP6 ADD PUSH2 0x3A4 JUMP JUMPDEST SWAP2 POP POP SWAP3 SWAP2 POP POP JUMP JUMPDEST PUSH0 PUSH1 0xFF DUP3 AND SWAP1 POP SWAP2 SWAP1 POP JUMP JUMPDEST PUSH2 0x3F8 DUP2 PUSH2 0x3E3 JUMP JUMPDEST DUP2 EQ PUSH2 0x402 JUMPI PUSH0 DUP1 REVERT JUMPDEST POP JUMP JUMPDEST PUSH0 DUP2 CALLDATALOAD SWAP1 POP PUSH2 0x413 DUP2 PUSH2 0x3EF JUMP JUMPDEST SWAP3 SWAP2 POP POP JUMP JUMPDEST PUSH0 PUSH1 0x20 DUP3 DUP5 SUB SLT ISZERO PUSH2 0x42E JUMPI PUSH2 0x42D PUSH2 0x37B JUMP JUMPDEST JUMPDEST PUSH0 PUSH2 0x43B DUP5 DUP3 DUP6 ADD PUSH2 0x405 JUMP JUMPDEST SWAP2 POP POP SWAP3 SWAP2 POP POP JUMP JUMPDEST PUSH2 0x44D DUP2 PUSH2 0x3E3 JUMP JUMPDEST DUP3 MSTORE POP POP JUMP JUMPDEST PUSH0 PUSH1 0x20 DUP3 ADD SWAP1 POP PUSH2 0x466 PUSH0 DUP4 ADD DUP5 PUSH2 0x444 JUMP JUMPDEST SWAP3 SWAP2 POP POP JUMP JUMPDEST PUSH0 PUSH20 0xFFFFFFFFFFFFFFFFFFFFFFFFFFFFFFFFFFFFFFFF DUP3 AND SWAP1 POP SWAP2 SWAP1 POP JUMP JUMPDEST PUSH0 PUSH2 0x495 DUP3 PUSH2 0x46C JUMP JUMPDEST SWAP1 POP SWAP2 SWAP1 POP JUMP JUMPDEST PUSH2 0x4A5 DUP2 PUSH2 0x48B JUMP JUMPDEST DUP3 MSTORE POP POP JUMP JUMPDEST PUSH0 PUSH1 0x20 DUP3 ADD SWAP1 POP PUSH2 0x4BE PUSH0 DUP4 ADD DUP5 PUSH2 0x49C JUMP JUMPDEST SWAP3 SWAP2 POP POP JUMP JUMPDEST PUSH0 DUP1 REVERT JUMPDEST PUSH0 DUP1 REVERT JUMPDEST PUSH32 0x4E487B7100000000000000000000000000000000000000000000000000000000 PUSH0 MSTORE PUSH1 0x41 PUSH1 0x4 MSTORE PUSH1 0x24 PUSH0 REVERT JUMPDEST PUSH2 0x502 DUP3 PUSH2 0x30A JUMP JUMPDEST DUP2 ADD DUP2 DUP2 LT PUSH8 0xFFFFFFFFFFFFFFFF DUP3 GT OR ISZERO PUSH2 0x521 JUMPI PUSH2 0x520 PUSH2 0x4CC JUMP JUMPDEST JUMPDEST DUP1 PUSH1 0x40 MSTORE POP POP POP JUMP JUMPDEST PUSH0 PUSH2 0x533 PUSH2 0x372 JUMP JUMPDEST SWAP1 POP PUSH2 0x53F DUP3 DUP3 PUSH2 0x4F9 JUMP JUMPDEST SWAP2 SWAP1 POP JUMP JUMPDEST PUSH0 PUSH8 0xFFFFFFFFFFFFFFFF DUP3 GT ISZERO PUSH2 0x55E JUMPI PUSH2 0x55D PUSH2 0x4CC JUMP JUMPDEST JUMPDEST PUSH2 0x567 DUP3 PUSH2 0x30A JUMP JUMPDEST SWAP1 POP PUSH1 0x20 DUP2 ADD SWAP1 POP SWAP2 SWAP1 POP JUMP JUMPDEST DUP3 DUP2 DUP4 CALLDATACOPY PUSH0 DUP4 DUP4 ADD MSTORE POP POP POP JUMP JUMPDEST PUSH0 PUSH2 0x594 PUSH2 0x58F DUP5 PUSH2 0x544 JUMP JUMPDEST PUSH2 0x52A JUMP JUMPDEST SWAP1 POP DUP3 DUP2 MSTORE PUSH1 0x20 DUP2 ADD DUP5 DUP5 DUP5 ADD GT ISZERO PUSH2 0x5B0 JUMPI PUSH2 0x5AF PUSH2 0x4C8 JUMP JUMPDEST JUMPDEST PUSH2 0x5BB DUP5 DUP3 DUP6 PUSH2 0x574 JUMP JUMPDEST POP SWAP4 SWAP3 POP POP POP JUMP JUMPDEST PUSH0 DUP3 PUSH1 0x1F DUP4 ADD SLT PUSH2 0x5D7 JUMPI PUSH2 0x5D6 PUSH2 0x4C4 JUMP JUMPDEST JUMPDEST DUP2 CALLDATALOAD PUSH2 0x5E7 DUP5 DUP3 PUSH1 0x20 DUP7 ADD PUSH2 0x582 JUMP JUMPDEST SWAP2 POP POP SWAP3 SWAP2 POP POP JUMP JUMPDEST PUSH0 PUSH1 0x20 DUP3 DUP5 SUB SLT ISZERO PUSH2 0x605 JUMPI PUSH2 0x604 PUSH2 0x37B JUMP JUMPDEST JUMPDEST PUSH0 DUP3 ADD CALLDATALOAD PUSH8 0xFFFFFFFFFFFFFFFF DUP2 GT ISZERO PUSH2 0x622 JUMPI PUSH2 0x621 PUSH2 0x37F JUMP JUMPDEST JUMPDEST PUSH2 0x62E DUP5 DUP3 DUP6 ADD PUSH2 0x5C3 JUMP JUMPDEST SWAP2 POP POP SWAP3 SWAP2 POP POP JUMP JUMPDEST PUSH2 0x640 DUP2 PUSH2 0x48B JUMP JUMPDEST DUP2 EQ PUSH2 0x64A JUMPI PUSH0 DUP1 REVERT JUMPDEST POP JUMP JUMPDEST PUSH0 DUP2 CALLDATALOAD SWAP1 POP PUSH2 0x65B DUP2 PUSH2 0x637 JUMP JUMPDEST SWAP3 SWAP2 POP POP JUMP JUMPDEST PUSH0 PUSH1 0x20 DUP3 DUP5 SUB SLT ISZERO PUSH2 0x676 JUMPI PUSH2 0x675 PUSH2 0x37B JUMP JUMPDEST JUMPDEST PUSH0 PUSH2 0x683 DUP5 DUP3 DUP6 ADD PUSH2 0x64D JUMP JUMPDEST SWAP2 POP POP SWAP3 SWAP2 POP POP JUMP JUMPDEST PUSH2 0x695 DUP2 PUSH2 0x383 JUMP JUMPDEST DUP3 MSTORE POP POP JUMP JUMPDEST PUSH0 PUSH1 0x20 DUP3 ADD SWAP1 POP PUSH2 0x6AE PUSH0 DUP4 ADD DUP5 PUSH2 0x68C JUMP JUMPDEST SWAP3 SWAP2 POP POP JUMP JUMPDEST PUSH32 0x4E487B7100000000000000000000000000000000000000000000000000000000 PUSH0 MSTORE PUSH1 0x22 PUSH1 0x4 MSTORE PUSH1 0x24 PUSH0 REVERT JUMPDEST PUSH0 PUSH1 0x2 DUP3 DIV SWAP1 POP PUSH1 0x1 DUP3 AND DUP1 PUSH2 0x6F8 JUMPI PUSH1 0x7F DUP3 AND SWAP2 POP JUMPDEST PUSH1 0x20 DUP3 LT DUP2 SUB PUSH2 0x70B JUMPI PUSH2 0x70A PUSH2 0x6B4 JUMP JUMPDEST JUMPDEST POP SWAP2 SWAP1 POP JUMP JUMPDEST PUSH0 DUP2 SWAP1 POP DUP2 PUSH0 MSTORE PUSH1 0x20 PUSH0 KECCAK256 SWAP1 POP SWAP2 SWAP1 POP JUMP JUMPDEST PUSH0 PUSH1 0x20 PUSH1 0x1F DUP4 ADD DIV SWAP1 POP SWAP2 SWAP1 POP JUMP JUMPDEST PUSH0 DUP3 DUP3 SHL SWAP1 POP SWAP3 SWAP2 POP POP JUMP JUMPDEST PUSH0 PUSH1 0x8 DUP4 MUL PUSH2 0x76D PUSH32 0xFFFFFFFFFFFFFFFFFFFFFFFFFFFFFFFFFFFFFFFFFFFFFFFFFFFFFFFFFFFFFFFF DUP3 PUSH2 0x732 JUMP JUMPDEST PUSH2 0x777 DUP7 DUP4 PUSH2 0x732 JUMP JUMPDEST SWAP6 POP DUP1 NOT DUP5 AND SWAP4 POP DUP1 DUP7 AND DUP5 OR SWAP3 POP POP POP SWAP4 SWAP3 POP POP POP JUMP JUMPDEST PUSH0 DUP2 SWAP1 POP SWAP2 SWAP1 POP JUMP JUMPDEST PUSH0 DUP2 SWAP1 POP SWAP2 SWAP1 POP JUMP JUMPDEST PUSH0 PUSH2 0x7BB PUSH2 0x7B6 PUSH2 0x7B1 DUP5 PUSH2 0x78F JUMP JUMPDEST PUSH2 0x798 JUMP JUMPDEST PUSH2 0x78F JUMP JUMPDEST SWAP1 POP SWAP2 SWAP1 POP JUMP JUMPDEST PUSH0 DUP2 SWAP1 POP SWAP2 SWAP1 POP JUMP JUMPDEST PUSH2 0x7D4 DUP4 PUSH2 0x7A1 JUMP JUMPDEST PUSH2 0x7E8 PUSH2 0x7E0 DUP3 PUSH2 0x7C2 JUMP JUMPDEST DUP5 DUP5 SLOAD PUSH2 0x73E JUMP JUMPDEST DUP3 SSTORE POP POP POP POP JUMP JUMPDEST PUSH0 SWAP1 JUMP JUMPDEST PUSH2 0x7FC PUSH2 0x7F0 JUMP JUMPDEST PUSH2 0x807 DUP2 DUP5 DUP5 PUSH2 0x7CB JUMP JUMPDEST POP POP POP JUMP JUMPDEST JUMPDEST DUP2 DUP2 LT ISZERO PUSH2 0x82A JUMPI PUSH2 0x81F PUSH0 DUP3 PUSH2 0x7F4 JUMP JUMPDEST PUSH1 0x1 DUP2 ADD SWAP1 POP PUSH2 0x80D JUMP JUMPDEST POP POP JUMP JUMPDEST PUSH1 0x1F DUP3 GT ISZERO PUSH2 0x86F JUMPI PUSH2 0x840 DUP2 PUSH2 0x711 JUMP JUMPDEST PUSH2 0x849 DUP5 PUSH2 0x723 JUMP JUMPDEST DUP2 ADD PUSH1 0x20 DUP6 LT ISZERO PUSH2 0x858 JUMPI DUP2 SWAP1 POP JUMPDEST PUSH2 0x86C PUSH2 0x864 DUP6 PUSH2 0x723 JUMP JUMPDEST DUP4 ADD DUP3 PUSH2 0x80C JUMP JUMPDEST POP POP JUMPDEST POP POP POP JUMP JUMPDEST PUSH0 DUP3 DUP3 SHR SWAP1 POP SWAP3 SWAP2 POP POP JUMP JUMPDEST PUSH0 PUSH2 0x88F PUSH0 NOT DUP5 PUSH1 0x8 MUL PUSH2 0x874 JUMP JUMPDEST NOT DUP1 DUP4 AND SWAP2 POP POP SWAP3 SWAP2 POP POP JUMP JUMPDEST PUSH0 PUSH2 0x8A7 DUP4 DUP4 PUSH2 0x880 JUMP JUMPDEST SWAP2 POP DUP3 PUSH1 0x2 MUL DUP3 OR SWAP1 POP SWAP3 SWAP2 POP POP JUMP JUMPDEST PUSH2 0x8C0 DUP3 PUSH2 0x2E2 JUMP JUMPDEST PUSH8 0xFFFFFFFFFFFFFFFF DUP2 GT ISZERO PUSH2 0x8D9 JUMPI PUSH2 0x8D8 PUSH2 0x4CC JUMP JUMPDEST JUMPDEST PUSH2 0x8E3 DUP3 SLOAD PUSH2 0x6E1 JUMP JUMPDEST PUSH2 0x8EE DUP3 DUP3 DUP6 PUSH2 0x82E JUMP JUMPDEST PUSH0 PUSH1 0x20 SWAP1 POP PUSH1 0x1F DUP4 GT PUSH1 0x1 DUP2 EQ PUSH2 0x91F JUMPI PUSH0 DUP5 ISZERO PUSH2 0x90D JUMPI DUP3 DUP8 ADD MLOAD SWAP1 POP JUMPDEST PUSH2 0x917 DUP6 DUP3 PUSH2 0x89C JUMP JUMPDEST DUP7 SSTORE POP PUSH2 0x97E JUMP JUMPDEST PUSH1 0x1F NOT DUP5 AND PUSH2 0x92D DUP7 PUSH2 0x711 JUMP JUMPDEST PUSH0 JUMPDEST DUP3 DUP2 LT ISZERO PUSH2 0x954 JUMPI DUP5 DUP10 ADD MLOAD DUP3 SSTORE PUSH1 0x1 DUP3 ADD SWAP2 POP PUSH1 0x20 DUP6 ADD SWAP5 POP PUSH1 0x20 DUP2 ADD SWAP1 POP PUSH2 0x92F JUMP JUMPDEST DUP7 DUP4 LT ISZERO PUSH2 0x971 JUMPI DUP5 DUP10 ADD MLOAD PUSH2 0x96D PUSH1 0x1F DUP10 AND DUP3 PUSH2 0x880 JUMP JUMPDEST DUP4 SSTORE POP JUMPDEST PUSH1 0x1 PUSH1 0x2 DUP9 MUL ADD DUP9 SSTORE POP POP POP JUMPDEST POP POP POP POP POP POP JUMP INVALID LOG2 PUSH5 0x6970667358 0x22 SLT KECCAK256 0xCF PUSH19 0xD64395E564328FFC563CC8E4936B638D28CCF1 0xE3 MUL 0xC6 DUP10 0xED 0xC SWAP9 DUP6 SWAP7 PUSH1 0xAB PUSH5 0x736F6C6343 STOP ADDMOD NOT STOP CALLER "
		},
		"gasEstimates": {
			"creation": {
				"codeDepositCost": "498400",
				"executionCost": "49110",
				"totalCost": "547510"
			},
			"external": {
				"getAge()": "2540",
				"getIsActive()": "2587",
				"getName()": "infinite",
				"getWalletAddr()": "2566",
				"setAddress(address)": "24810",
				"setAge(uint8)": "24718",
				"setIsActive(bool)": "24747",
				"setName(string)": "infinite"
			}
		},
		"methodIdentifiers": {
			"getAge()": "967e6e65",
			"getIsActive()": "fba7cc79",
			"getName()": "17d7de7c",
			"getWalletAddr()": "bb304284",
			"setAddress(address)": "e30081a0",
			"setAge(uint8)": "5b0c8d70",
			"setIsActive(bool)": "2750fc78",
			"setName(string)": "c47f0027"
		}
	},
	"abi": [
		{
			"inputs": [],
			"stateMutability": "nonpayable",
			"type": "constructor"
		},
		{
			"inputs": [],
			"name": "getAge",
			"outputs": [
				{
					"internalType": "uint8",
					"name": "",
					"type": "uint8"
				}
			],
			"stateMutability": "view",
			"type": "function"
		},
		{
			"inputs": [],
			"name": "getIsActive",
			"outputs": [
				{
					"internalType": "bool",
					"name": "",
					"type": "bool"
				}
			],
			"stateMutability": "view",
			"type": "function"
		},
		{
			"inputs": [],
			"name": "getName",
			"outputs": [
				{
					"internalType": "string",
					"name": "",
					"type": "string"
				}
			],
			"stateMutability": "view",
			"type": "function"
		},
		{
			"inputs": [],
			"name": "getWalletAddr",
			"outputs": [
				{
					"internalType": "address",
					"name": "",
					"type": "address"
				}
			],
			"stateMutability": "view",
			"type": "function"
		},
		{
			"inputs": [
				{
					"internalType": "address",
					"name": "_walletAddr",
					"type": "address"
				}
			],
			"name": "setAddress",
			"outputs": [],
			"stateMutability": "nonpayable",
			"type": "function"
		},
		{
			"inputs": [
				{
					"internalType": "uint8",
					"name": "_age",
					"type": "uint8"
				}
			],
			"name": "setAge",
			"outputs": [],
			"stateMutability": "nonpayable",
			"type": "function"
		},
		{
			"inputs": [
				{
					"internalType": "bool",
					"name": "_isActive",
					"type": "bool"
				}
			],
			"name": "setIsActive",
			"outputs": [],
			"stateMutability": "nonpayable",
			"type": "function"
		},
		{
			"inputs": [
				{
					"internalType": "string",
					"name": "_name",
					"type": "string"
				}
			],
			"name": "setName",
			"outputs": [],
			"stateMutability": "nonpayable",
			"type": "function"
		}
	]
}