{
	"data": {
		"bytecode": {
			"linkReferences": {},
			"object": "608060405261271060005534801561001657600080fd5b5033600260006101000a81548173ffffffffffffffffffffffffffffffffffffffff021916908373ffffffffffffffffffffffffffffffffffffffff16021790555061078a806100676000396000f3fe608060405234801561001057600080fd5b50600436106100625760003560e01c806306fdde031461006757806318160ddd1461008557806327e235e3146100a357806340c10f19146100d357806342966c68146100ef578063b0d0bfdd1461010b575b600080fd5b61006f610129565b60405161007c9190610554565b60405180910390f35b61008d610162565b60405161009a91906105b6565b60405180910390f35b6100bd60048036038101906100b891906103d8565b610168565b6040516100ca91906105b6565b60405180910390f35b6100ed60048036038101906100e89190610401565b610180565b005b6101096004803603810190610104919061043d565b610282565b005b610113610375565b6040516101209190610554565b60405180910390f35b6040518060400160405280600681526020017f76746f6b656e000000000000000000000000000000000000000000000000000081525081565b60005481565b60016020528060005260406000206000915090505481565b3373ffffffffffffffffffffffffffffffffffffffff16600260009054906101000a900473ffffffffffffffffffffffffffffffffffffffff1673ffffffffffffffffffffffffffffffffffffffff1614610210576040517f08c379a000000000000000000000000000000000000000000000000000000000815260040161020790610596565b60405180910390fd5b8060008082825461022191906105ed565b9250508190555080600160008473ffffffffffffffffffffffffffffffffffffffff1673ffffffffffffffffffffffffffffffffffffffff168152602001908152602001600020600082825461027791906105ed565b925050819055505050565b80600160003373ffffffffffffffffffffffffffffffffffffffff1673ffffffffffffffffffffffffffffffffffffffff168152602001908152602001600020541015610304576040517f08c379a00000000000000000000000000000000000000000000000000000000081526004016102fb90610576565b60405180910390fd5b806000808282546103159190610643565b9250508190555080600160003373ffffffffffffffffffffffffffffffffffffffff1673ffffffffffffffffffffffffffffffffffffffff168152602001908152602001600020600082825461036b9190610643565b9250508190555050565b6040518060400160405280600281526020017f767400000000000000000000000000000000000000000000000000000000000081525081565b6000813590506103bd81610726565b92915050565b6000813590506103d28161073d565b92915050565b6000602082840312156103ea57600080fd5b60006103f8848285016103ae565b91505092915050565b6000806040838503121561041457600080fd5b6000610422858286016103ae565b9250506020610433858286016103c3565b9150509250929050565b60006020828403121561044f57600080fd5b600061045d848285016103c3565b91505092915050565b6000610471826105d1565b61047b81856105dc565b935061048b8185602086016106b3565b61049481610715565b840191505092915050565b60006104ac6010836105dc565b91507f6e6f7420656e6f75676820746f6b656e000000000000000000000000000000006000830152602082019050919050565b60006104ec6022836105dc565b91507f206f6e6c79206f776e65722063616e2063616c6c20746869732066756e63746960008301527f6f6e0000000000000000000000000000000000000000000000000000000000006020830152604082019050919050565b61054e816106a9565b82525050565b6000602082019050818103600083015261056e8184610466565b905092915050565b6000602082019050818103600083015261058f8161049f565b9050919050565b600060208201905081810360008301526105af816104df565b9050919050565b60006020820190506105cb6000830184610545565b92915050565b600081519050919050565b600082825260208201905092915050565b60006105f8826106a9565b9150610603836106a9565b9250827fffffffffffffffffffffffffffffffffffffffffffffffffffffffffffffffff03821115610638576106376106e6565b5b828201905092915050565b600061064e826106a9565b9150610659836106a9565b92508282101561066c5761066b6106e6565b5b828203905092915050565b600061068282610689565b9050919050565b600073ffffffffffffffffffffffffffffffffffffffff82169050919050565b6000819050919050565b60005b838110156106d15780820151818401526020810190506106b6565b838111156106e0576000848401525b50505050565b7f4e487b7100000000000000000000000000000000000000000000000000000000600052601160045260246000fd5b6000601f19601f8301169050919050565b61072f81610677565b811461073a57600080fd5b50565b610746816106a9565b811461075157600080fd5b5056fea2646970667358221220d08a466a44020c8ddcefb0ae97eedced95551e20a8ba816e030be8934b1392c864736f6c63430008000033",
			"opcodes": "PUSH1 0x80 PUSH1 0x40 MSTORE PUSH2 0x2710 PUSH1 0x0 SSTORE CALLVALUE DUP1 ISZERO PUSH2 0x16 JUMPI PUSH1 0x0 DUP1 REVERT JUMPDEST POP CALLER PUSH1 0x2 PUSH1 0x0 PUSH2 0x100 EXP DUP2 SLOAD DUP2 PUSH20 0xFFFFFFFFFFFFFFFFFFFFFFFFFFFFFFFFFFFFFFFF MUL NOT AND SWAP1 DUP4 PUSH20 0xFFFFFFFFFFFFFFFFFFFFFFFFFFFFFFFFFFFFFFFF AND MUL OR SWAP1 SSTORE POP PUSH2 0x78A DUP1 PUSH2 0x67 PUSH1 0x0 CODECOPY PUSH1 0x0 RETURN INVALID PUSH1 0x80 PUSH1 0x40 MSTORE CALLVALUE DUP1 ISZERO PUSH2 0x10 JUMPI PUSH1 0x0 DUP1 REVERT JUMPDEST POP PUSH1 0x4 CALLDATASIZE LT PUSH2 0x62 JUMPI PUSH1 0x0 CALLDATALOAD PUSH1 0xE0 SHR DUP1 PUSH4 0x6FDDE03 EQ PUSH2 0x67 JUMPI DUP1 PUSH4 0x18160DDD EQ PUSH2 0x85 JUMPI DUP1 PUSH4 0x27E235E3 EQ PUSH2 0xA3 JUMPI DUP1 PUSH4 0x40C10F19 EQ PUSH2 0xD3 JUMPI DUP1 PUSH4 0x42966C68 EQ PUSH2 0xEF JUMPI DUP1 PUSH4 0xB0D0BFDD EQ PUSH2 0x10B JUMPI JUMPDEST PUSH1 0x0 DUP1 REVERT JUMPDEST PUSH2 0x6F PUSH2 0x129 JUMP JUMPDEST PUSH1 0x40 MLOAD PUSH2 0x7C SWAP2 SWAP1 PUSH2 0x554 JUMP JUMPDEST PUSH1 0x40 MLOAD DUP1 SWAP2 SUB SWAP1 RETURN JUMPDEST PUSH2 0x8D PUSH2 0x162 JUMP JUMPDEST PUSH1 0x40 MLOAD PUSH2 0x9A SWAP2 SWAP1 PUSH2 0x5B6 JUMP JUMPDEST PUSH1 0x40 MLOAD DUP1 SWAP2 SUB SWAP1 RETURN JUMPDEST PUSH2 0xBD PUSH1 0x4 DUP1 CALLDATASIZE SUB DUP2 ADD SWAP1 PUSH2 0xB8 SWAP2 SWAP1 PUSH2 0x3D8 JUMP JUMPDEST PUSH2 0x168 JUMP JUMPDEST PUSH1 0x40 MLOAD PUSH2 0xCA SWAP2 SWAP1 PUSH2 0x5B6 JUMP JUMPDEST PUSH1 0x40 MLOAD DUP1 SWAP2 SUB SWAP1 RETURN JUMPDEST PUSH2 0xED PUSH1 0x4 DUP1 CALLDATASIZE SUB DUP2 ADD SWAP1 PUSH2 0xE8 SWAP2 SWAP1 PUSH2 0x401 JUMP JUMPDEST PUSH2 0x180 JUMP JUMPDEST STOP JUMPDEST PUSH2 0x109 PUSH1 0x4 DUP1 CALLDATASIZE SUB DUP2 ADD SWAP1 PUSH2 0x104 SWAP2 SWAP1 PUSH2 0x43D JUMP JUMPDEST PUSH2 0x282 JUMP JUMPDEST STOP JUMPDEST PUSH2 0x113 PUSH2 0x375 JUMP JUMPDEST PUSH1 0x40 MLOAD PUSH2 0x120 SWAP2 SWAP1 PUSH2 0x554 JUMP JUMPDEST PUSH1 0x40 MLOAD DUP1 SWAP2 SUB SWAP1 RETURN JUMPDEST PUSH1 0x40 MLOAD DUP1 PUSH1 0x40 ADD PUSH1 0x40 MSTORE DUP1 PUSH1 0x6 DUP2 MSTORE PUSH1 0x20 ADD PUSH32 0x76746F6B656E0000000000000000000000000000000000000000000000000000 DUP2 MSTORE POP DUP2 JUMP JUMPDEST PUSH1 0x0 SLOAD DUP2 JUMP JUMPDEST PUSH1 0x1 PUSH1 0x20 MSTORE DUP1 PUSH1 0x0 MSTORE PUSH1 0x40 PUSH1 0x0 KECCAK256 PUSH1 0x0 SWAP2 POP SWAP1 POP SLOAD DUP2 JUMP JUMPDEST CALLER PUSH20 0xFFFFFFFFFFFFFFFFFFFFFFFFFFFFFFFFFFFFFFFF AND PUSH1 0x2 PUSH1 0x0 SWAP1 SLOAD SWAP1 PUSH2 0x100 EXP SWAP1 DIV PUSH20 0xFFFFFFFFFFFFFFFFFFFFFFFFFFFFFFFFFFFFFFFF AND PUSH20 0xFFFFFFFFFFFFFFFFFFFFFFFFFFFFFFFFFFFFFFFF AND EQ PUSH2 0x210 JUMPI PUSH1 0x40 MLOAD PUSH32 0x8C379A000000000000000000000000000000000000000000000000000000000 DUP2 MSTORE PUSH1 0x4 ADD PUSH2 0x207 SWAP1 PUSH2 0x596 JUMP JUMPDEST PUSH1 0x40 MLOAD DUP1 SWAP2 SUB SWAP1 REVERT JUMPDEST DUP1 PUSH1 0x0 DUP1 DUP3 DUP3 SLOAD PUSH2 0x221 SWAP2 SWAP1 PUSH2 0x5ED JUMP JUMPDEST SWAP3 POP POP DUP2 SWAP1 SSTORE POP DUP1 PUSH1 0x1 PUSH1 0x0 DUP5 PUSH20 0xFFFFFFFFFFFFFFFFFFFFFFFFFFFFFFFFFFFFFFFF AND PUSH20 0xFFFFFFFFFFFFFFFFFFFFFFFFFFFFFFFFFFFFFFFF AND DUP2 MSTORE PUSH1 0x20 ADD SWAP1 DUP2 MSTORE PUSH1 0x20 ADD PUSH1 0x0 KECCAK256 PUSH1 0x0 DUP3 DUP3 SLOAD PUSH2 0x277 SWAP2 SWAP1 PUSH2 0x5ED JUMP JUMPDEST SWAP3 POP POP DUP2 SWAP1 SSTORE POP POP POP JUMP JUMPDEST DUP1 PUSH1 0x1 PUSH1 0x0 CALLER PUSH20 0xFFFFFFFFFFFFFFFFFFFFFFFFFFFFFFFFFFFFFFFF AND PUSH20 0xFFFFFFFFFFFFFFFFFFFFFFFFFFFFFFFFFFFFFFFF AND DUP2 MSTORE PUSH1 0x20 ADD SWAP1 DUP2 MSTORE PUSH1 0x20 ADD PUSH1 0x0 KECCAK256 SLOAD LT ISZERO PUSH2 0x304 JUMPI PUSH1 0x40 MLOAD PUSH32 0x8C379A000000000000000000000000000000000000000000000000000000000 DUP2 MSTORE PUSH1 0x4 ADD PUSH2 0x2FB SWAP1 PUSH2 0x576 JUMP JUMPDEST PUSH1 0x40 MLOAD DUP1 SWAP2 SUB SWAP1 REVERT JUMPDEST DUP1 PUSH1 0x0 DUP1 DUP3 DUP3 SLOAD PUSH2 0x315 SWAP2 SWAP1 PUSH2 0x643 JUMP JUMPDEST SWAP3 POP POP DUP2 SWAP1 SSTORE POP DUP1 PUSH1 0x1 PUSH1 0x0 CALLER PUSH20 0xFFFFFFFFFFFFFFFFFFFFFFFFFFFFFFFFFFFFFFFF AND PUSH20 0xFFFFFFFFFFFFFFFFFFFFFFFFFFFFFFFFFFFFFFFF AND DUP2 MSTORE PUSH1 0x20 ADD SWAP1 DUP2 MSTORE PUSH1 0x20 ADD PUSH1 0x0 KECCAK256 PUSH1 0x0 DUP3 DUP3 SLOAD PUSH2 0x36B SWAP2 SWAP1 PUSH2 0x643 JUMP JUMPDEST SWAP3 POP POP DUP2 SWAP1 SSTORE POP POP JUMP JUMPDEST PUSH1 0x40 MLOAD DUP1 PUSH1 0x40 ADD PUSH1 0x40 MSTORE DUP1 PUSH1 0x2 DUP2 MSTORE PUSH1 0x20 ADD PUSH32 0x7674000000000000000000000000000000000000000000000000000000000000 DUP2 MSTORE POP DUP2 JUMP JUMPDEST PUSH1 0x0 DUP2 CALLDATALOAD SWAP1 POP PUSH2 0x3BD DUP2 PUSH2 0x726 JUMP JUMPDEST SWAP3 SWAP2 POP POP JUMP JUMPDEST PUSH1 0x0 DUP2 CALLDATALOAD SWAP1 POP PUSH2 0x3D2 DUP2 PUSH2 0x73D JUMP JUMPDEST SWAP3 SWAP2 POP POP JUMP JUMPDEST PUSH1 0x0 PUSH1 0x20 DUP3 DUP5 SUB SLT ISZERO PUSH2 0x3EA JUMPI PUSH1 0x0 DUP1 REVERT JUMPDEST PUSH1 0x0 PUSH2 0x3F8 DUP5 DUP3 DUP6 ADD PUSH2 0x3AE JUMP JUMPDEST SWAP2 POP POP SWAP3 SWAP2 POP POP JUMP JUMPDEST PUSH1 0x0 DUP1 PUSH1 0x40 DUP4 DUP6 SUB SLT ISZERO PUSH2 0x414 JUMPI PUSH1 0x0 DUP1 REVERT JUMPDEST PUSH1 0x0 PUSH2 0x422 DUP6 DUP3 DUP7 ADD PUSH2 0x3AE JUMP JUMPDEST SWAP3 POP POP PUSH1 0x20 PUSH2 0x433 DUP6 DUP3 DUP7 ADD PUSH2 0x3C3 JUMP JUMPDEST SWAP2 POP POP SWAP3 POP SWAP3 SWAP1 POP JUMP JUMPDEST PUSH1 0x0 PUSH1 0x20 DUP3 DUP5 SUB SLT ISZERO PUSH2 0x44F JUMPI PUSH1 0x0 DUP1 REVERT JUMPDEST PUSH1 0x0 PUSH2 0x45D DUP5 DUP3 DUP6 ADD PUSH2 0x3C3 JUMP JUMPDEST SWAP2 POP POP SWAP3 SWAP2 POP POP JUMP JUMPDEST PUSH1 0x0 PUSH2 0x471 DUP3 PUSH2 0x5D1 JUMP JUMPDEST PUSH2 0x47B DUP2 DUP6 PUSH2 0x5DC JUMP JUMPDEST SWAP4 POP PUSH2 0x48B DUP2 DUP6 PUSH1 0x20 DUP7 ADD PUSH2 0x6B3 JUMP JUMPDEST PUSH2 0x494 DUP2 PUSH2 0x715 JUMP JUMPDEST DUP5 ADD SWAP2 POP POP SWAP3 SWAP2 POP POP JUMP JUMPDEST PUSH1 0x0 PUSH2 0x4AC PUSH1 0x10 DUP4 PUSH2 0x5DC JUMP JUMPDEST SWAP2 POP PUSH32 0x6E6F7420656E6F75676820746F6B656E00000000000000000000000000000000 PUSH1 0x0 DUP4 ADD MSTORE PUSH1 0x20 DUP3 ADD SWAP1 POP SWAP2 SWAP1 POP JUMP JUMPDEST PUSH1 0x0 PUSH2 0x4EC PUSH1 0x22 DUP4 PUSH2 0x5DC JUMP JUMPDEST SWAP2 POP PUSH32 0x206F6E6C79206F776E65722063616E2063616C6C20746869732066756E637469 PUSH1 0x0 DUP4 ADD MSTORE PUSH32 0x6F6E000000000000000000000000000000000000000000000000000000000000 PUSH1 0x20 DUP4 ADD MSTORE PUSH1 0x40 DUP3 ADD SWAP1 POP SWAP2 SWAP1 POP JUMP JUMPDEST PUSH2 0x54E DUP2 PUSH2 0x6A9 JUMP JUMPDEST DUP3 MSTORE POP POP JUMP JUMPDEST PUSH1 0x0 PUSH1 0x20 DUP3 ADD SWAP1 POP DUP2 DUP2 SUB PUSH1 0x0 DUP4 ADD MSTORE PUSH2 0x56E DUP2 DUP5 PUSH2 0x466 JUMP JUMPDEST SWAP1 POP SWAP3 SWAP2 POP POP JUMP JUMPDEST PUSH1 0x0 PUSH1 0x20 DUP3 ADD SWAP1 POP DUP2 DUP2 SUB PUSH1 0x0 DUP4 ADD MSTORE PUSH2 0x58F DUP2 PUSH2 0x49F JUMP JUMPDEST SWAP1 POP SWAP2 SWAP1 POP JUMP JUMPDEST PUSH1 0x0 PUSH1 0x20 DUP3 ADD SWAP1 POP DUP2 DUP2 SUB PUSH1 0x0 DUP4 ADD MSTORE PUSH2 0x5AF DUP2 PUSH2 0x4DF JUMP JUMPDEST SWAP1 POP SWAP2 SWAP1 POP JUMP JUMPDEST PUSH1 0x0 PUSH1 0x20 DUP3 ADD SWAP1 POP PUSH2 0x5CB PUSH1 0x0 DUP4 ADD DUP5 PUSH2 0x545 JUMP JUMPDEST SWAP3 SWAP2 POP POP JUMP JUMPDEST PUSH1 0x0 DUP2 MLOAD SWAP1 POP SWAP2 SWAP1 POP JUMP JUMPDEST PUSH1 0x0 DUP3 DUP3 MSTORE PUSH1 0x20 DUP3 ADD SWAP1 POP SWAP3 SWAP2 POP POP JUMP JUMPDEST PUSH1 0x0 PUSH2 0x5F8 DUP3 PUSH2 0x6A9 JUMP JUMPDEST SWAP2 POP PUSH2 0x603 DUP4 PUSH2 0x6A9 JUMP JUMPDEST SWAP3 POP DUP3 PUSH32 0xFFFFFFFFFFFFFFFFFFFFFFFFFFFFFFFFFFFFFFFFFFFFFFFFFFFFFFFFFFFFFFFF SUB DUP3 GT ISZERO PUSH2 0x638 JUMPI PUSH2 0x637 PUSH2 0x6E6 JUMP JUMPDEST JUMPDEST DUP3 DUP3 ADD SWAP1 POP SWAP3 SWAP2 POP POP JUMP JUMPDEST PUSH1 0x0 PUSH2 0x64E DUP3 PUSH2 0x6A9 JUMP JUMPDEST SWAP2 POP PUSH2 0x659 DUP4 PUSH2 0x6A9 JUMP JUMPDEST SWAP3 POP DUP3 DUP3 LT ISZERO PUSH2 0x66C JUMPI PUSH2 0x66B PUSH2 0x6E6 JUMP JUMPDEST JUMPDEST DUP3 DUP3 SUB SWAP1 POP SWAP3 SWAP2 POP POP JUMP JUMPDEST PUSH1 0x0 PUSH2 0x682 DUP3 PUSH2 0x689 JUMP JUMPDEST SWAP1 POP SWAP2 SWAP1 POP JUMP JUMPDEST PUSH1 0x0 PUSH20 0xFFFFFFFFFFFFFFFFFFFFFFFFFFFFFFFFFFFFFFFF DUP3 AND SWAP1 POP SWAP2 SWAP1 POP JUMP JUMPDEST PUSH1 0x0 DUP2 SWAP1 POP SWAP2 SWAP1 POP JUMP JUMPDEST PUSH1 0x0 JUMPDEST DUP4 DUP2 LT ISZERO PUSH2 0x6D1 JUMPI DUP1 DUP3 ADD MLOAD DUP2 DUP5 ADD MSTORE PUSH1 0x20 DUP2 ADD SWAP1 POP PUSH2 0x6B6 JUMP JUMPDEST DUP4 DUP2 GT ISZERO PUSH2 0x6E0 JUMPI PUSH1 0x0 DUP5 DUP5 ADD MSTORE JUMPDEST POP POP POP POP JUMP JUMPDEST PUSH32 0x4E487B7100000000000000000000000000000000000000000000000000000000 PUSH1 0x0 MSTORE PUSH1 0x11 PUSH1 0x4 MSTORE PUSH1 0x24 PUSH1 0x0 REVERT JUMPDEST PUSH1 0x0 PUSH1 0x1F NOT PUSH1 0x1F DUP4 ADD AND SWAP1 POP SWAP2 SWAP1 POP JUMP JUMPDEST PUSH2 0x72F DUP2 PUSH2 0x677 JUMP JUMPDEST DUP2 EQ PUSH2 0x73A JUMPI PUSH1 0x0 DUP1 REVERT JUMPDEST POP JUMP JUMPDEST PUSH2 0x746 DUP2 PUSH2 0x6A9 JUMP JUMPDEST DUP2 EQ PUSH2 0x751 JUMPI PUSH1 0x0 DUP1 REVERT JUMPDEST POP JUMP INVALID LOG2 PUSH5 0x6970667358 0x22 SLT KECCAK256 0xD0 DUP11 CHAINID PUSH11 0x44020C8DDCEFB0AE97EEDC 0xED SWAP6 SSTORE 0x1E KECCAK256 0xA8 0xBA DUP2 PUSH15 0x30BE8934B1392C864736F6C634300 ADDMOD STOP STOP CALLER "
		},
		"gasEstimates": {
			"creation": {
				"codeDepositCost": "386000",
				"executionCost": "41296",
				"totalCost": "427296"
			},
			"external": {
				"abr()": "infinite",
				"balances(address)": "1536",
				"burn(uint256)": "infinite",
				"mint(address,uint256)": "infinite",
				"name()": "infinite",
				"totalSupply()": "1129"
			}
		},
		"methodIdentifiers": {
			"abr()": "b0d0bfdd",
			"balances(address)": "27e235e3",
			"burn(uint256)": "42966c68",
			"mint(address,uint256)": "40c10f19",
			"name()": "06fdde03",
			"totalSupply()": "18160ddd"
		}
	},
	"abi": [
		{
			"inputs": [],
			"stateMutability": "nonpayable",
			"type": "constructor"
		},
		{
			"inputs": [],
			"name": "abr",
			"outputs": [
				{
					"internalType": "string",
					"name": "",
					"type": "string"
				}
			],
			"stateMutability": "view",
			"type": "function"
		},
		{
			"inputs": [
				{
					"internalType": "address",
					"name": "",
					"type": "address"
				}
			],
			"name": "balances",
			"outputs": [
				{
					"internalType": "uint256",
					"name": "",
					"type": "uint256"
				}
			],
			"stateMutability": "view",
			"type": "function"
		},
		{
			"inputs": [
				{
					"internalType": "uint256",
					"name": "_val",
					"type": "uint256"
				}
			],
			"name": "burn",
			"outputs": [],
			"stateMutability": "nonpayable",
			"type": "function"
		},
		{
			"inputs": [
				{
					"internalType": "address",
					"name": "_adr",
					"type": "address"
				},
				{
					"internalType": "uint256",
					"name": "_val",
					"type": "uint256"
				}
			],
			"name": "mint",
			"outputs": [],
			"stateMutability": "nonpayable",
			"type": "function"
		},
		{
			"inputs": [],
			"name": "name",
			"outputs": [
				{
					"internalType": "string",
					"name": "",
					"type": "string"
				}
			],
			"stateMutability": "view",
			"type": "function"
		},
		{
			"inputs": [],
			"name": "totalSupply",
			"outputs": [
				{
					"internalType": "uint256",
					"name": "",
					"type": "uint256"
				}
			],
			"stateMutability": "view",
			"type": "function"
		}
	]
}